10010956300001502147483647    LANCHONETE L F S LTDA                                             MG00000000002021010120210131331
11                                  00022LOJA 28               CENTRO         00000036CONTABILIDADE RANIERI S/S LT002147483647
5013350834000179ISENTO        20210112MG551  0098201403P000000000800000000000000000000000000000000000000000000000000000000000N
50428085350001336258070930055 20210105MG551  1269951403P000000004233800000000000000000000000000000000000000000000000000000000N
50428085350001336258070930055 20210112MG551  1274371403P000000002414200000000000000000000000000000000000000000000000000000000N
50428085350001336258070930055 20210119MG551  1278951403P000000000999900000000000000000000000000000000000000000000000000000000N
5033009911010363ISENTO        20210104MG5528 1389291403P000000004524900000000452470000000011313000000000000000000000000002500N
5033009911010363ISENTO        20210111MG5528 1399571403P000000006765200000000676490000000016914000000000000000000000000002500N
5033009911010363ISENTO        20210112MG5528 1400551910P000000000204600000000000000000000000000000000000000000000000000000000N
5033009911010363ISENTO        20210112MG5528 1400551202P000000001227600000000122760000000002210000000000000000000000000001800N
5033009911010363ISENTO        20210118MG5528 1409161403P000000005123600000000512340000000012810000000000000000000000000002500N
5033009911010363ISENTO        20210125MG5528 1419651403P000000003881300000000388120000000009704000000000000000000000000002500N
5033009911010363ISENTO        20210125MG5528 1419651102P000000000925200000000092520000000001665000000000000000000000000001800N
5033009911010363ISENTO        20210125MG5528 1419651910P000000000154200000000000000000000000000000000000000000000000000000000N
5033009911010363ISENTO        20210129MG5528 1427841411P000000005123600000000512340000000012810000000000000000000000000002500N
53428085350001336258070930055 20210105MG551  1269951403P000000000475000000000058750000000000000N                              
53428085350001336258070930055 20210112MG551  1274371403P000000000252900000000035790000000000000N                              
53428085350001336258070930055 20210119MG551  1278951403P000000000067500000000010590000000000000N                              
5333009911010363ISENTO        20210104MG5528 1389291403P000000005150000000000015630000000000000N                              
5333009911010363ISENTO        20210111MG5528 1399571403P000000007700000000000023360000000000000N                              
5333009911010363ISENTO        20210118MG5528 1409161403P000000005850000000000018150000000000000N                              
5333009911010363ISENTO        20210125MG5528 1419651403P000000004450000000000014210000000000000N                              
5333009911010363ISENTO        20210129MG5528 1427841411P000000005850000000000018150000000000000N                              
5413350834000179551  009820140306000184            000000001000000000080000000000000000000000000000000000000000000000000000000
5442808535000133551  1269951403060001000010        000000001000000000014440000000000000000000000000000000000000000000000000000
5442808535000133551  1269951403060002000137        000000001000000000013320000000000000000000000000000000000000000000000000000
5442808535000133551  1269951403060003000144        000000001000000000013320000000000000000000000000000000000000000000000000000
5442808535000133551  1269951403060004000163        000000003000000000075960000000000000000000000000000000000000000000000000000
5442808535000133551  1269951403060005000713        000000001000000000028320000000000000000000000000000000000000000000000000000
5442808535000133551  1269951403060006000813        000000001000000000015390000000000000000000000000000000000000000000000000000
5442808535000133551  1269951403060007000814        000000001000000000019000000000000000000000000000000000000000000000000000000
5442808535000133551  1269951403060008001158        000000015000000000189000000000000000000000000000000000000000000000000000000
5442808535000133551  1269951403060009001453        000000001000000000022680000000000000000000000000000000000000000000000000000
5442808535000133551  1269951403060010004066        000000001000000000015150000000000000000000000000000000000000000000000000000
5442808535000133551  1269951403060011004073        000000001000000000016800000000000000000000000000000000000000000000000000000
5442808535000133551  1274371403060001000075        000000001000000000011280000000000000000000000000000000000000000000000000000
5442808535000133551  1274371403060002000075        000000001000000000011280000000000000000000000000000000000000000000000000000
5442808535000133551  1274371403060003000163        000000003000000000075960000000000000000000000000000000000000000000000000000
5442808535000133551  1274371403060004000812        000000001000000000016960000000000000000000000000000000000000000000000000000
5442808535000133551  1274371403060005000952        000000001000000000019620000000000000000000000000000000000000000000000000000
5442808535000133551  1274371403060006001158        000000005000000000063000000000000000000000000000000000000000000000000000000
5442808535000133551  1274371403060007092286        000000001000000000014440000000000000000000000000000000000000000000000000000
5442808535000133551  1274371403060008092288        000000002000000000028880000000000000000000000000000000000000000000000000000
5442808535000133551  1278951403060001000163        000000001000000000027360000000000000000000000000000000000000000000000000000
5442808535000133551  1278951403060002001453        000000001000000000022680000000000000000000000000000000000000000000000000000
5442808535000133551  1278951403060003002062        000000002000000000034800000000000000000000000000000000000000000000000000000
5442808535000133551  1278951403060004004066        000000001000000000015150000000000000000000000000000000000000000000000000000
54330099110103635528 138929140301000110055107      000000000200000000048800000000000000000000055000000000055000000000000002500
54330099110103635528 138929140301000210057610      000000000400000000164110000000000000000000190000000000190000000000000002500
54330099110103635528 138929140301000310055088      000000000200000000048800000000000000000000055000000000055000000000000002500
54330099110103635528 138929140301000410081335      000000000400000000124230000000000000000000140000000000140000000000000002500
54330099110103635528 138929140301000510087698      000000000200000000066550000000000000000000075000000000075000000000000002500
54330099110103635528 139957140301000110055107      000000000200000000048800000000000000000000055000000000055000000000000002500
54330099110103635528 139957140301000210057610      000000000600000000246150000000000000000000285000000000285000000000000002500
54330099110103635528 139957140301000310081371      000000000200000000075430000000000000000000085000000000085000000000000002500
54330099110103635528 139957140301000410055088      000000000200000000048800000000000000000000055000000000055000000000000002500
54330099110103635528 139957140301000510081335      000000000400000000124230000000000000000000140000000000140000000000000002500
54330099110103635528 139957140301000610087698      000000000400000000133110000000000000000000150000000000150000000000000002500
54330099110103635528 140055191044100150994945      000000006000000000020460000000000000000000000000000000000000000000000000000
54330099110103635528 140055120240000150994945      000000036000000000122760000000000000000000000000000000000000000000000001800
54330099110103635528 140916140301000110057610      000000000600000000246150000000000000000000285000000000285000000000000002500
54330099110103635528 140916140301000210081371      000000000200000000075430000000000000000000085000000000085000000000000002500
54330099110103635528 140916140301000310081335      000000000400000000124230000000000000000000140000000000140000000000000002500
54330099110103635528 140916140301000410087698      000000000200000000066550000000000000000000075000000000075000000000000002500
54330099110103635528 141965140301000110057610      000000000600000000246150000000000000000000285000000000285000000000000002500
54330099110103635528 141965140301000210081371      000000000200000000075430000000000000000000085000000000085000000000000002500
54330099110103635528 141965110240000350994931      000000036000000000092520000000000000000000000000000000000000000000000001800
54330099110103635528 141965140301000410087698      000000000200000000066550000000000000000000075000000000075000000000000002500
54330099110103635528 141965191044100550994931      000000006000000000015420000000000000000000000000000000000000000000000000000
54330099110103635528 142784141101000110087698      000000000200000000066550000000000000000000075000000000075000000000000002500
54330099110103635528 142784141101000210057610      000000000600000000246150000000000000000000285000000000285000000000000002500
54330099110103635528 142784141101000310081335      000000000400000000124230000000000000000000140000000000140000000000000002500
54330099110103635528 142784141101000410081371      000000000200000000075430000000000000000000085000000000085000000000000002500
75202101012021013184            08119000ACAI 10LTS                                           UN    000000000000000000000000000
752021010120210131000010        22029900DV MARACUJA LATA 290/06                              CX    000000000000000000000000000
752021010120210131000137        22021000DV FRESH LARANJA PET 250ML/12U                       CX    000000000000000000000000000
752021010120210131000144        22021000DV FRESH LIMAO PET 250ML/12UN                        CX    000000000000000000000000000
752021010120210131000163        22021000COCA COLA LATA/12                                    CX    000000000000000000000000000
752021010120210131000713        22021000SCHWEPPES TONICA LATA/12                             CX    000000000000000000000000000
752021010120210131000813        22021000DV KAPO ABACAXI/12                                   CX    000000000000000000000000000
752021010120210131000814        22021000DV KAPO MORANGO/12                                   CX    000000000000000000000000000
752021010120210131001158        22021000COCA-COLA REG PET 200ML 12U MA                       CX    000000000000000000000000000
752021010120210131001453        22021000SPRITE ORIG 350ML\12 MAINLINE                        CX    000000000000000000000000000
752021010120210131004066        22011000AGUA CRYSTAL S/GAS 500ML/12                          CX    000000000000000000000000000
752021010120210131004073        22011000AGUA CRYSTAL 500 ML C/GAS /12                        CX    000000000000000000000000000
752021010120210131000075        22021000SPRITE FRESH LIMAO PET 510ML/6                       CX    000000000000000000000000000
752021010120210131000812        22021000DV KAPO UVA C/12                                     CX    000000000000000000000000000
752021010120210131000952        22021000GUAR KUAT LATA CX/12                                 CX    000000000000000000000000000
752021010120210131092286        22029900DV PESSEGO LATA 290ML/06                             CX    000000000000000000000000000
752021010120210131092288        22029900DV GOIABA LATA 290ML/06                              CX    000000000000000000000000000
752021010120210131002062        22021000CC SEM ACUCAR LT 220ML 12 FI M                       CX    000000000000000000000000000
75202101012021013110055107      24022000ROTH BLUE MACO 20/200 HW18                           MIL   000005000000000000000011000
75202101012021013110057610      24022000DUNHILL CARLTON BOX 20/200 BC                        MIL   000001250000000000000133000
75202101012021013110055088      24022000ROTH RED 20/200 KRE SC BRA HW18                      MIL   000005000000000000000011000
75202101012021013110081335      24022000KENT ACCESS AZUL MACO NR                             MIL   000001000000000000000056000
75202101012021013110087698      24022000LUCKY STRIKE RED ORIG MACO 20/200 EG                 MIL   000001250000000000000045000
75202101012021013110081371      24022000KENT PRIME RED MACO                                  MIL   000001000000000000000034000
75202101012021013150994945      96131000ISQ BIC MAX C/6 (ONU1057-ISQUEIRO GAS)               UN    000001800000000000000000000
75202101012021013150994931      96131000ISQ BIC MIN C/6 (ONU1057-ISQUEIRO GAS)               UN    000001800000000000000000000
90010956300001502147483647    5000000013                                                                                     5
90010956300001502147483647    5300000008                                                                                     5
90010956300001502147483647    5400000050                                                                                     5
90010956300001502147483647    7500000026                                                                                     5
90010956300001502147483647    9900000104                                                                                     5
