10210896930001001832784850075 NUNES SORVETES LTDA                Conselheiro Lafaiete          MG00000000002020090120200930331
11Rua Frei Eustáquio               00010                      LOURDES        36408018A SANTIAGO LACERDA GUIMARAES003137638559
5016583239000171ISENTO        20200911MG559210019421101P000000000529200000000000000000000000000000000000000000000000000000000N
5016583239000171ISENTO        20200910MG553  2112291102P000000005464600000000243380000000004381000000000000000000000000001800N
5016583239000171ISENTO        20200928MG551  1263651405P000000019454400000000000000000000000000000000000000000000000000000000N
5016583239000171ISENTO        20200924MG551  4899221102P000000009362100000000025860000000000465000000001193800000000000000000N
5016583239000171ISENTO        20200925MG551  0076251405P000000000549800000000000000000000000000000000000000000000000000000000N
5016583239000171ISENTO        20200925MG551  0076251102P000000000409400000000000000000000000000000000000000000000000000000000N
5016583239000171ISENTO        20200930MG552  2403611405P000000011503600000000000000000000000000000000004075900000000000000000N
5016583239000171ISENTO        20200930MG552  2403611102P000000002677800000000267780000000004820000000004075900000000000001800N
5016583239000171ISENTO        20200930MG552  2403621910P000000000446400000000044640000000000804000000000000000000000000001800N
5016583239000171ISENTO        20200928MG551  1345711910P000000000597600000000000000000000000000000000000000000000000000000000N
5016583239000171ISENTO        20200928MG551  1345721405P000000012335700000000000000000000000000000000000000000000000000000000N
5016583239000171ISENTO        20200915MG551  0492751401P000000032735800000000000000000000000000000000000000000000000000000000N
5016583239000171ISENTO        20200908MG551  1483791405P000000017289900000000000000000000000000000000000000000000000000000000N
5016583239000171ISENTO        20200918MG552  1248451102P000000004784600000000478460000000008612000000000000000000000000001800N
5016583239000171ISENTO        20200904MG551  6883131401P000000005694000000000000000000000000000000000000000000000000000000000N
5016583239000171ISENTO        20200904MG551  6883501910P000000001138800000000000000000000000000000000000000000000000000000000N
5016583239000171ISENTO        20200911MG551  6930211401P000000022671500000000000000000000000000000000000000000000000000000000N
5016583239000171ISENTO        20200911MG551  6930341910P000000004534300000000000000000000000000000000000000000000000000000000N
5016583239000171ISENTO        20200911MG551  0343871910P000000000010000000000000000000000000000000000000000000000000000000000N
5016583239000171ISENTO        20200925MG551  0346471102P000000002610000000000000000000000000000000000000000000000000000000000N
5016583239000171ISENTO        20200913MG551  8236571102P000000005376800000000475330000000008557000000000000000000000007990000N
5016583239000171ISENTO        20200928MG551  9073761102P000000009559600000000256910000000004625000000000000000000000007991800N
5016583239000171ISENTO        20200912MG551  7208281102P000000016728400000001672840000000030112000000000000000000000000001800N
5016583239000171ISENTO        20200912MG551  7208281405P000000002838000000000000000000000000000000000000000000000000000000000N
5016583239000171ISENTO        20200912MG551  7208291910P000000001430400000000143040000000002574000000000000000000000000001800N
5016583239000171ISENTO        20200912MG551  7208301102P000000040422800000004042280000000072762000000000000000000000000001800N
5016583239000171ISENTO        20200926MG551  7265051102P000000010263500000000990000000000017820000000000000000000000000001800N
5016583239000171ISENTO        20200926MG551  7265051910P000000000840000000000000000000000000000000000000000000000000000000000N
5016583239000171ISENTO        20200914MG551  1517881405P000000002260400000000000000000000000000000000001846000000000000000000N
5016583239000171ISENTO        20200914MG551  1517881102P000000002360600000000236060000000004249000000001846000000000000001800N
5016583239000171ISENTO        20200925MG551  1529221102P000000003030900000000303090000000005456000000001394400000000000001800N
5016583239000171ISENTO        20200925MG551  1529221405P000000001233800000000000000000000000000000000001394400000000000000000N
5016583239000171ISENTO        20200902MG551  0163991102P000000005850000000000585000000000010530000000000245700000000000001800N
5016583239000171ISENTO        20200916MG551  0165531102P000000017400000000000000000000000000000000000003862800000000000000000N
5016583239000171ISENTO        20200911MG550  7386571102P000000009354400000000553230000000009959000000000000000000000000001800N
5016583239000171ISENTO        20200928MG550  7689321102P000000011309700000000479230000000008625000000000000000000000000000000N
5016583239000171ISENTO        20200915MG551  0552161102P000000004858700000000485870000000008749000000000000000000000000001800N
5016583239000171ISENTO        20200915MG551  0552161405P000000005202800000000000000000000000000000000000000000000000000000000N
5016583239000171ISENTO        20200928MG551  0556171405P000000000474700000000000000000000000000000000000000000000000000000000N
5016583239000171ISENTO        20200928MG551  0556171102P000000004543600000000454360000000008181000000000000000000000000001800N
5016583239000171ISENTO        20200909MG551  0453281910P000000002159800000000000000000000000000000000000522700000000000000000N
5016583239000171ISENTO        20200909MG551  0453321910P000000010799000000000000000000000000000000000002613400000000000000000N
5016583239000171ISENTO        20200909MG551  0453531405P000000010799000000000000000000000000000000000002613400000000000000000N
5016583239000171ISENTO        20200909MG551  0180601102P000000003181300000000318130000000005726000000000809600000000000001800N
5016583239000171ISENTO        20200909MG551  0180611910P000000000138700000000013870000000000250000000000035300000000000001800N
5016583239000171ISENTO        20200911MG551  2796521405P000000001447300000000000000000000000000000000000000000000000000000000N
5016583239000171ISENTO        20200911MG551  2796521102P000000009761000000000857480000000015434000000000000000000000000000000N
5016583239000171ISENTO        20200903MG550  0382691403P000000009795000000000000000000000000000000000000000000000000005400000N
5016583239000171ISENTO        20200911MG550  0721811102P000000006446400000000532750000000009590000000000000000000000005401800N
5016583239000171ISENTO        20200911MG550  0721821403P000000000525600000000000000000000000000000000000000000000000000000000N
5016583239000171ISENTO        20200911MG551  2810311102P000000008568500000000793170000000014276000000000000000000000000001800N
5016583239000171ISENTO        20200911MG551  2810311403P000000002235300000000000000000000000000000000000000000000000000000000N
5016583239000171ISENTO        20200918MG551  2213112101P000000029163100000002916310000000034996000000000000000000000000001200N
5005859105000114ISENTO        20200911MG551  1709551102P000000097622200000009762220000000175721000000000000000000000000001800N
5005859105000114ISENTO        20200928MG551  1263671405P000000026139400000000000000000000000000000000000000000000000000000000N
5005859105000114ISENTO        20200930MG552  2403601405P000000017274500000000000000000000000000000000005311900000000000000000N
5005859105000114ISENTO        20200915MG551  0492731401P000000028648000000000000000000000000000000000000000000000000000000000N
5005859105000114ISENTO        20200903MG552  1235191102P000000001586000000000158600000000002854000000000000000000000000001800N
5005859105000114ISENTO        20200903MG552  1235191405P000000000599000000000000000000000000000000000000000000000000000000000N
5005859105000114ISENTO        20200916MG552  1246351102P000000007753600000000775360000000013956000000000000000000000000001800N
5005859105000114ISENTO        20200916MG552  1246351405P000000000464800000000000000000000000000000000000000000000000000000000N
5005859105000114ISENTO        20200928MG551  9073931102P000000007664300000000621990000000011196000000000000000000000007991800N
5005859105000114ISENTO        20200914MG551  1517871405P000000004969200000000000000000000000000000000003659600000000000000000N
5005859105000114ISENTO        20200914MG551  1517871102P000000003396000000000339600000000006112000000003659600000000000001800N
5005859105000114ISENTO        20200916MG551  0165581102P000000011600000000001160000000000020880000000002575200000000000001800N
5005859105000114ISENTO        20200915MG551  0552151405P000000000396000000000000000000000000000000000000000000000000000000000N
5005859105000114ISENTO        20200915MG551  0552151102P000000004121900000000412190000000007421000000000000000000000000001800N
5005859105000114ISENTO        20200928MG551  0556101405P000000000474200000000000000000000000000000000000000000000000000000000N
5005859105000114ISENTO        20200928MG551  0556101102P000000005373000000000537300000000009672000000000000000000000000001800N
5005859105000114ISENTO        20200923MG551  0462791910P000000004254600000000000000000000000000000000001029700000000000000000N
5005859105000114ISENTO        20200923MG551  0462801405P000000050313800000000000000000000000000000000012176000000000000000000N
5005859105000114ISENTO        20200928MG551  0465741405P000000008903400000000000000000000000000000000002154700000000000000000N
5005859105000114ISENTO        20200909MG551  0180591102P000000004001500000000400150000000007202000000001018400000000000001800N
5005859105000114ISENTO        20200909MG551  0180621910P000000000138700000000013870000000000250000000000035300000000000001800N
5005859105000114ISENTO        20200928MG551  0186041102P000000007404100000000740410000000013328000000001643800000000000001800N
5005859105000114ISENTO        20200928MG551  0186051910P000000000673100000000067310000000001212000000000149500000000000001800N
5005859105000114ISENTO        20200926MG551  2874281403P000000011130800000000000000000000000000000000000000000000000000000000N
5005859105000114ISENTO        20200926MG551  2874281102P000000011669100000001042530000000020116000000000000000000000000001800N
5003524801000144ISENTO        20200910MG553  2112281102P000000007928100000000640530000000011531000000000000000000000000001800N
5003524801000144ISENTO        20200910MG553  2112281403P000000000060000000000000000000000000000000000000000000000000000000000N
5003524801000144ISENTO        20200916MG551  0281591102P000000012732000000000000000000000000000000000004004400000000000000000N
5003524801000144ISENTO        20200928MG551  1263661403P000000006868800000000000000000000000000000000000000000000000000000000N
5003524801000144ISENTO        20200915MG551  0971161403P000000116890500000000000000000000000000000000000000000000000000000000N
5003524801000144ISENTO        20200930MG552  2403651403P000000006909800000000000000000000000000000000003681700000000000000000N
5003524801000144ISENTO        20200930MG552  2403651102P000000007742500000000774250000000013936000000003681700000000000001800N
5003524801000144ISENTO        20200930MG552  2403661910P000000000596300000000059630000000001074000000000000000000000000001800N
5003524801000144ISENTO        20200915MG551  0492721403P000000027727500000000000000000000000000000000000000000000000000000000N
5003524801000144ISENTO        20200903MG552  1235201102P000000009622300000000962230000000017320000000000000000000000000001800N
5003524801000144ISENTO        20200904MG551  6883121403P000000005694000000000000000000000000000000000000000000000000000000000N
5003524801000144ISENTO        20200904MG551  6883441910P000000000225400000000000000000000000000000000000000000000000000000000N
5003524801000144ISENTO        20200904MG551  6883451911P000000000157500000000000000000000000000000000000000000000000000000000N
5003524801000144ISENTO        20200904MG551  6883491910P000000001138800000000000000000000000000000000000000000000000000000000N
5003524801000144ISENTO        20200911MG551  0343851102P000000002610000000000000000000000000000000000000000000000000000000000N
5003524801000144ISENTO        20200925MG551  0346451102P000000002610000000000000000000000000000000000000000000000000000000000N
5003524801000144ISENTO        20200913MG551  8236591102P000000010662600000000524750000000009446000000000000000000000007990000N
5003524801000144ISENTO        20200921MG551  8690641102P000000007120400000000716090000000012892000000000000000000000007991800N
5003524801000144ISENTO        20200928MG551  9073801102P000000007538100000000617620000000011117000000000000000000000007991800N
5003524801000144ISENTO        20200929MG551  1532431102P000000003030900000000303090000000005456000000001582800000000000001800N
5003524801000144ISENTO        20200929MG551  1532431403P000000001556000000000000000000000000000000000001582800000000000000000N
5003524801000144ISENTO        20200914MG550  7418321102P000000004594800000000238180000000004287000000000000000000000000000000N
5003524801000144ISENTO        20200915MG551  0123251102P000000005040400000000000000000000000000000000000000000000000000000000N
5003524801000144ISENTO        20200915MG551  0123261403P000000005308600000000000000000000000000000000000000000000000000000000N
5003524801000144ISENTO        20200915MG551  0552191102P000000003836300000000383630000000006906000000000000000000000000001800N
5003524801000144ISENTO        20200915MG551  0552191403P000000001530700000000000000000000000000000000000000000000000000000000N
5003524801000144ISENTO        20200928MG551  0556221102P000000001881400000000188140000000003387000000000000000000000000001800N
5003524801000144ISENTO        20200928MG551  0556221403P000000003616800000000000000000000000000000000000000000000000000000000N
5003524801000144ISENTO        20200918MG551  0212041403P000000011507000000000000000000000000000000000002942100000000000000000N
5003524801000144ISENTO        20200918MG551  0212041102P000000000708100000000070810000000001275000000002942100000000000001800N
5003524801000144ISENTO        20200911MG551  2796531102P000000021513700000001843460000000033183000000000000000000000000001800N
5003524801000144ISENTO        20200911MG551  2796531403P000000010816600000000000000000000000000000000000000000000000000000000N
5003524801000144ISENTO        20200918MG551  2834921102P000000004101200000000410120000000007384000000000000000000000000001800N
5003524801000144ISENTO        20200918MG551  2834921403P000000005517800000000000000000000000000000000000000000000000000000000N
5003524801000144ISENTO        20200918MG551  6049882102P000000027302500000002730250000000032763000000000000000000000000001200N
5004638358000103ISENTO        20200903MG551  0013841403P000000000890000000000000000000000000000000000000230300000000000000000N
5004638358000103ISENTO        20200928MG551  0068521102P000000019756000000000000000000000000000000000000000000000000000000000N
5004638358000103ISENTO        20200901MG551  7544721102P000000017322600000000670870000000012077000000004406600000000007991800N
5004638358000103ISENTO        20200917MG551  8504051102P000000006526300000000659280000000011867000000000000000000000007991800N
5004638358000103ISENTO        20200924MG551  8912201102P000000008947300000000902720000000016250000000000000000000000007991800N
5004638358000103ISENTO        20200916MG551  0047171102P000000005400000000000360020000000006480000000000000000000000000001800N
5004638358000103ISENTO        20200914MG552  1335272102P000000036730000000003673000000000032236000000000000000000000000001200N
5004638358000103ISENTO        20200907MG551  0099942102P000000013808100000000000000000000000000000000003065400000000000000000N
5004638358000103ISENTO        20200930MG551  0051942102P000000036538000000003471110000000041652000000000000000000000000001200N
5004638358000103ISENTO        20200930MG551  0051962910P000000000988800000000098880000000001187000000000000000000000000001200N
5004638358000103ISENTO        20200916MG558  0760722102P000000032410300000003241030000000012961000000000000000000000000000400N
5004638358000103ISENTO        20200928MG551  9013322911P000000001128600000000112860000000001354000000000000000000000000001200N
5003872722000124ISENTO        20200911MG553  1726111656P000000008769600000000000000000000000000000000002814200000000000000000N
5003872722000124ISENTO        20200925MG553  1741201656P000000009439200000000000000000000000000000000003029100000000000000000N
5003872722000124ISENTO        20200902MG551  4880831405P000000007020000000000000000000000000000000000000000000000000000000000N
5003872722000124ISENTO        20200914MG551  4901791405P000000000900000000000000000000000000000000000000000000000000000000000N
5003872722000124ISENTO        20200922MG5555 6333081405P000000002791300000000000000000000000000000000000608800000000000000000N
5003872722000124ISENTO        20200918MG5555 5963771923P000000021600000000000000000000000000000000000000000000000000000000000N
5003872722000124ISENTO        20200910MG550  0358161102P000000003326400000000000000000000000000000000000000000000000000000000N
5003872722000124ISENTO        20200923MG550  0360121655P000000002500800000000000000000000000000000000000000000000000000000000N
5003872722000124ISENTO        20200922MG551  4872281405P000000005796900000000000000000000000000000000001780200000000000000000N
5003872722000124ISENTO        20200925MG551  0224051405P000000002940000000000000000000000000000000000000000000000000000000000N
5003872722000124ISENTO        20200929MG552  0043841405P000000009090000000000000000000000000000000000000000000000000000000000N
5003872722000124ISENTO        20200921MG551  5019971405P000000002961800000000000000000000000000000000000909000000000000000000N
5003872722000124ISENTO        20200921MG551  5019971102P000000000072000000000007200000000000130000000000909000000000000001800N
5003872722000124ISENTO        20200910MG551  0007461102P000000000840000000000000000000000000000000000000254600000000000000000N
5003872722000124ISENTO        20200925MG551  0007521102P000000001850000000000000000000000000000000000000818800000000000000000N
5003872722000124ISENTO        20200930MG551  0007531102P000000001200000000000000000000000000000000000000533900000000000000000N
5003872722000124ISENTO        20200928MG551  0033301403P000000016500000000000000000000000000000000000002709300000000000000000N
5003872722000124ISENTO        20200924MG551  0724771405P000000002650000000000000000000000000000000000000000000000000000000000N
5003872722000124ISENTO        20200902MG551  0449851405P000000004034000000000000000000000000000000000000000000000000000000000N
5003872722000124ISENTO        20200902MG551  0021041403P000000002800000000000000000000000000000000000000000000000000000000000N
5003872722000124ISENTO        20200930MG552  0029411405P000000006560000000000000000000000000000000000000000000000000000000000N
5003872722000124ISENTO        20200902MG551  0123331405P000000003300000000000000000000000000000000000000000000000000000000000N
5003872722000124ISENTO        20200924MG551  0124541405P000000004854000000000000000000000000000000000000000000000000000000000N
5003872722000124ISENTO        20200925MG551  0172341405P000000000900000000000000000000000000000000000000364900000000000000000N
5003872722000124ISENTO        20200928MG551  0006661405P000000009140000000000000000000000000000000000000000000000000000000000N
5003872722000124ISENTO        20200918MG551  0061931405P000000001300000000000000000000000000000000000000354100000000000000000N
5003872722000124ISENTO        20200922MG550  1963031405P000000005245600000000000000000000000000000000000000000000000000000000N
5003872722000124ISENTO        20200909MG551  0048611405P000000002700000000000000000000000000000000000000000000000000000000000N
5003872722000124ISENTO        20200924MG551  0049381405P000000002600000000000000000000000000000000000000000000000000000000000N
5003872722000124ISENTO        20200918MG550  9702191405P000000002902800000000000000000000000000000000000000000000000000000000N
5003872722000124ISENTO        20200918MG550  9702331405P000000005295400000000000000000000000000000000000000000000000000000000N
5003872722000124ISENTO        20200902MG551  7618421102P000000001352100000000137110000000002468000000001086300000000007991800N
5003872722000124ISENTO        20200901MG550  1377481403P000000003360000000000000000000000000000000000000575900000000000000000N
5003872722000124ISENTO        20200901MG550  1377481403P000000003360000000000000000000000000000000000000575900000000000000000N
5003872722000124ISENTO        20200917MG551  0643381405P000000004078800000000000000000000000000000000000000000000000000000000N
5003872722000124ISENTO        20200917MG551  0643381405P000000004078800000000000000000000000000000000000000000000000000000000N
5003872722000124ISENTO        20200929MG551  1804781405P000000011879000000000000000000000000000000000000000000000000000000000N
5003872722000124ISENTO        20200929MG551  1804781405P000000011879000000000000000000000000000000000000000000000000000000000N
5003872722000124ISENTO        20200928MG551  0026941405P000000008080000000000000000000000000000000000000633700000000000000000N
5003872722000124ISENTO        20200928MG551  0026941405P000000008080000000000000000000000000000000000000633700000000000000000N
5003872722000124ISENTO        20200909MG551  7584051405P000000013187800000000000000000000000000000000000000000000000001600000N
5003872722000124ISENTO        20200909MG551  7584051405P000000013187800000000000000000000000000000000000000000000000001600000N
5003872722000124ISENTO        20200910MG558030034861405P000000011600000000000000000000000000000000000002037600000000000000000N
5003872722000124ISENTO        20200910MG558030034861405P000000011600000000000000000000000000000000000002037600000000000000000N
5003872722000124ISENTO        20200914MG558030035211405P000000004366000000000000000000000000000000000001533800000000000000000N
5003872722000124ISENTO        20200915MG558030035311405P000000023820000000000000000000000000000000000004184000000000000000000N
5003872722000124ISENTO        20200915MG558030035311405P000000023820000000000000000000000000000000000004184000000000000000000N
5003872722000124ISENTO        20200922MG558030036101405P000000011812000000000000000000000000000000000002074800000000000000000N
5003872722000124ISENTO        20200922MG558030036101405P000000011812000000000000000000000000000000000002074800000000000000000N
5003872722000124ISENTO        20200928MG558030036541405P000000035160000000000000000000000000000000000006175800000000000000000N
5003872722000124ISENTO        20200928MG558030036541405P000000035160000000000000000000000000000000000006175800000000000000000N
5003872722000124ISENTO        20200915MG558030032061405P000000007920000000000000000000000000000000000001433900000000000000000N
5003872722000124ISENTO        20200915MG558030032061405P000000007920000000000000000000000000000000000001433900000000000000000N
5003872722000124ISENTO        20200901MG5524 0021581405P000000004700000000000000000000000000000000000000000000000000000000000N
5003872722000124ISENTO        20200905MG5524 0022021405P000000009400000000000000000000000000000000000000000000000000000000000N
5003872722000124ISENTO        20200905MG5524 0022021405P000000009400000000000000000000000000000000000000000000000000000000000N
5003872722000124ISENTO        20200921MG5524 0023231405P000000012280000000000000000000000000000000000000000000000000000000000N
5003872722000124ISENTO        20200921MG5524 0023231405P000000012280000000000000000000000000000000000000000000000000000000000N
5003872722000124ISENTO        20200925MG5524 0023731405P000000017800000000000000000000000000000000000000000000000000000000000N
5003872722000124ISENTO        20200925MG5524 0023731405P000000017800000000000000000000000000000000000000000000000000000000000N
5003872722000124ISENTO        20200930MG551  0000341102P000000001265000000000000000000000000000000000000000000000000000000000N
5003872722000124ISENTO        20200930MG551  0000341102P000000001265000000000000000000000000000000000000000000000000000000000N
5003872722000124ISENTO        20200911MG552  0058121102P000000000322000000000000000000000000000000000000000000000000000000000N
5003872722000124ISENTO        20200911MG552  0058121405P000000002645000000000000000000000000000000000000000000000000000000000N
5003872722000124ISENTO        20200911MG552  0058121102P000000000322000000000000000000000000000000000000000000000000000000000N
5003872722000124ISENTO        20200911MG552  0058121405P000000002645000000000000000000000000000000000000000000000000000000000N
5003872722000124ISENTO        20200929MG552  0058441405P000000006187000000000000000000000000000000000000000000000000000000000N
5003872722000124ISENTO        20200929MG552  0058441102P000000000322000000000000000000000000000000000000000000000000000000000N
5003872722000124ISENTO        20200929MG552  0058441405P000000006187000000000000000000000000000000000000000000000000000000000N
5003872722000124ISENTO        20200929MG552  0058441102P000000000322000000000000000000000000000000000000000000000000000000000N
5003872722000124ISENTO        20200930MG552  0058451102P000000001265000000000000000000000000000000000000000000000000000000000N
5003872722000124ISENTO        20200930MG552  0058451102P000000001265000000000000000000000000000000000000000000000000000000000N
5003872722000124ISENTO        20200915MG551  9136981405P000000007257600000000000000000000000000000000000000000000000000000000N
5003872722000124ISENTO        20200915MG551  9136981102P000000001399000000000148980000000002682000000000000000000000000001800N
5003872722000124ISENTO        20200915MG551  9136981405P000000007257600000000000000000000000000000000000000000000000000000000N
5003872722000124ISENTO        20200915MG551  9136981102P000000001399000000000148980000000002682000000000000000000000000001800N
5003872722000124ISENTO        20200929MG552  0168871405P000000016300000000000000000000000000000000000000000000000000000000000N
5003872722000124ISENTO        20200929MG552  0168871656P000000000340000000000000000000000000000000000000000000000000000000000N
5003872722000124ISENTO        20200929MG552  0168871405P000000016300000000000000000000000000000000000000000000000000000000000N
5003872722000124ISENTO        20200929MG552  0168871656P000000000340000000000000000000000000000000000000000000000000000000000N
5003872722000124ISENTO        20200925MG551  7915711405P000000029042200000000000000000000000000000000000000000000000002490000N
5003872722000124ISENTO        20200925MG551  7915711405P000000029042200000000000000000000000000000000000000000000000002490000N
5003872722000124ISENTO        20200928MG551  0251731405P000000019020000000000000000000000000000000000000000000000000000000000N
5003872722000124ISENTO        20200928MG551  0251731405P000000019020000000000000000000000000000000000000000000000000000000000N
5064193618000106ISENTO        20200910MG552  7642861403P000000003542400000000000000000000000000000000000000000000000000000000N
5064193618000106ISENTO        20200914MG553  8899721403P000000001056200000000000000000000000000000000000000000000000000000000N
5064193618000106ISENTO        20200909MG551  3164161908P000000006270000000000000000000000000000000000000000000000000000000000N
5064193618000106ISENTO        20200923MG551  6833061405P000000000841200000000000000000000000000000000000000000000000000000000N
5064193618000106ISENTO        20200923MG551  6833061102P000000000146400000000014640000000000264000000000000000000000000001800N
5064193618000106ISENTO        20200902MG551  0606571401P000000001864000000000000000000000000000000000000000000000000000000000N
5064193618000106ISENTO        20200921MG552  9304051102P000000001365000000000058000000000001044000000000394800000000000000000N
5064193618000106ISENTO        20200921MG552  9304051405P000000000159800000000000000000000000000000000000394800000000000000000N
5064193618000106ISENTO        20200910MG551  8052691102P000000001443600000000000000000000000000000000000000000000000000000000N
5064193618000106ISENTO        20200912MG551  8086961102P000000001353600000000000000000000000000000000000000000000000000000000N
5064193618000106ISENTO        20200916MG551  8120341102P000000001466400000000000000000000000000000000000000000000000000000000N
5064193618000106ISENTO        20200919MG551  8170241102P000000000481200000000000000000000000000000000000000000000000000000000N
5064193618000106ISENTO        20200904MG551  4106381405P000000001025700000000000000000000000000000000000000000000000000000000N
5064193618000106ISENTO        20200904MG551  4106391405P000000000723800000000000000000000000000000000000000000000000000000000N
5064193618000106ISENTO        20200904MG551  4106391102P000000000013500000000001350000000000024000000000000000000000000001800N
5064193618000106ISENTO        20200908MG553  6075171405P000000002112200000000000000000000000000000000000000000000000000000000N
5064193618000106ISENTO        20200915MG553  6104861405P000000000861000000000000000000000000000000000000000000000000000000000N
5064193618000106ISENTO        20200929MG553  6162651405P000000002263200000000000000000000000000000000000000000000000000000000N
5064193618000106ISENTO        20200903MG551  0871691405P000000000173000000000000000000000000000000000000055400000000000000000N
5064193618000106ISENTO        20200910MG551  0875281405P000000000350000000000000000000000000000000000000112000000000000000000N
5064193618000106ISENTO        20200917MG551  0879581405P000000000625000000000000000000000000000000000000200100000000000000000N
5064193618000106ISENTO        20200914MG551  3486581102P000000002076900000000128200000000002308000000000404900000000000000000N
5064193618000106ISENTO        20200928MG551  3499891102P000000011865500000000078050000000001405000000000988600000000000001800N
5064193618000106ISENTO        20200904MG553  5875481102P000000001728800000000050200000000000904000000000336200000000000000000N
5064193618000106ISENTO        20200912MG553  5887781102P000000000711400000000055220000000000994000000000304600000000000000000N
5064193618000106ISENTO        20200912MG553  5887781101P000000000291000000000029100000000000524000000000304600000000000001800N
5064193618000106ISENTO        20200912MG553  5887781405P000000000529000000000000000000000000000000000000304600000000000000000N
5064193618000106ISENTO        20200925MG553  5912861102P000000000920800000000060240000000001084000000000327400000000000000000N
5064193618000106ISENTO        20200925MG553  5912861101P000000000145500000000014550000000000262000000000327400000000000001800N
5064193618000106ISENTO        20200925MG553  5912861405P000000000777800000000000000000000000000000000000327400000000000000000N
5064193618000106ISENTO        20200903MG551  1872261405P000000003248000000000000000000000000000000000000000000000000001410000N
5064193618000106ISENTO        20200910MG551  1915281405P000000004937800000000000000000000000000000000000000000000000002150000N
5064193618000106ISENTO        20200917MG551  1962631405P000000003290200000000000000000000000000000000000000000000000001400000N
5064193618000106ISENTO        20200918MG551  1973351405P000000001182600000000000000000000000000000000000000000000000000530000N
5064193618000106ISENTO        20200924MG551  2008181405P000000004382700000000000000000000000000000000000000000000000001900000N
5064193618000106ISENTO        20200908MG551  0541321405P000000000711600000000000000000000000000000000000000000000000000000000N
5064193618000106ISENTO        20200908MG551  0541331403P000000000312900000000000000000000000000000000000000000000000000000000N
5064193618000106ISENTO        20200921MG551  0610201403P000000000429900000000000000000000000000000000000000000000000000000000N
5064193618000106ISENTO        20200915MG551  0518771411P000000000730000000000000000000000000000000000000000000000000000000000N
5064193618000106ISENTO        20200913MG551  0573271405P000000004255900000000000000000000000000000000000000000000000000000000N
5064193618000106ISENTO        20200909MG551013109001101P000000001477000000000000000000000000000000000000000000000000000000000N
5038474441000106ISENTO        20200903MG553  6060581405P000000000795000000000000000000000000000000000000000000000000000000000N
5038474441000106ISENTO        20200917MG553  6115911405P000000000777600000000000000000000000000000000000000000000000000000000N
5038474441000106ISENTO        20200924MG553  6143481405P000000001269600000000000000000000000000000000000000000000000000000000N
5038474441000106ISENTO        20200902MG551  0870411405P000000000227000000000000000000000000000000000000072700000000000000000N
5038474441000106ISENTO        20200916MG551  0878501405P000000000798000000000000000000000000000000000000255500000000000000000N
5038474441000106ISENTO        20200930MG551  0885931405P000000000227000000000000000000000000000000000000072700000000000000000N
5038474441000106ISENTO        20200911MG551  0315821403P000000001640000000000000000000000000000000000000364100000000000000000N
5038474441000106ISENTO        20200923MG555  1403431405P000000000459800000000000000000000000000000000000102100000000000000000N
5038474441000106ISENTO        20200917MG551  2148751102P000000002232800000000205420000000003698000000000990700000000000001800N
5038474441000106ISENTO        20200917MG551  2148751405P000000002409600000000000000000000000000000000000990700000000000000000N
5038474441000106ISENTO        20200929MG551013150111101P000000004653600000000000000000000000000000000000000000000000000000000N
5016755837000180ISENTO        20200901MG552  2879981102P000000066701100000006670110000000120062000000000000000000000000001800N
5016755837000180ISENTO        20200901MG552  2879981403P000000001240200000000000000000000000000000000000000000000000000000000N
5016755837000180ISENTO        20200909MG552  3098591102P000000004299200000000429920000000007739000000000000000000000000001800N
5016755837000180ISENTO        20200909MG552  3099241102P000000005478200000000547820000000009861000000000000000000000000001800N
5016755837000180ISENTO        20200923MG551  0102752102P000000031838000000000000000000000000000000000000000000000000000000000N
5016755837000180ISENTO        20200907MG550  0854562101P000000022231000000002223100000000026676000000000000000000000000001200N
5016755837000180ISENTO        20200909MG551  1707532102P000000016989900000001698990000000014829000000000000000000000000000400N
5016755837000180ISENTO        20200915MG551  1728532102P000000039266700000003926670000000017046000000000000000000000000000400N
5016755837000180ISENTO        20200921MG551  0353022101P000000012750600000001275060000000015301000000000000000000000000001200N
5016755837000180ISENTO        20200925MG552  1131672101P000000031859900000003185990000000038234000000000000000000000000001200N
5016755837000180ISENTO        20200918MG551  0080172101P000000009785100000000978510000000011743000000000000000000000000001200N
5016755837000180ISENTO        20200930MG555  2324142101P000000051557000000005155700000000061868000000000000000000000000001200N
5000149895000120ISENTO        20200917MG552  0002431405P000000019738400000000000000000000000000000000000740000000000000000000N
5000149895000120ISENTO        20200914MG550  2064501102P000000015260400000001526040000000027470000000000000000000000000001800N
5000149895000120ISENTO        20200928MG550  2075791102P000000012254800000001225480000000022057000000000000000000000000001800N
5000149895000120ISENTO        20200903MG551  0044121101P000000040728300000000000000000000000000000000013200100000000000000000N
5000149895000120ISENTO        20200922MG551  0044491101P000000015093300000000000000000000000000000000004891900000000000000000N
5000149895000120ISENTO        20200903MG551  0298421102P000000050000000000000000000000000000000000000000000000000000000000000N
5000149895000120ISENTO        20200924MG551  0027891102P000000014460000000000000000000000000000000000000000000000000000000000N
5000149895000120ISENTO        20200903MG551  0268921102P000000000589000000000000000000000000000000000000000000000000000000000N
5000149895000120ISENTO        20200903MG551  0268921405P000000014356000000000000000000000000000000000000000000000000000000000N
5000149895000120ISENTO        20200914MG5521 0798631949P000000001146300000000114630000000002063000000000000000000000000001800N
5000149895000120ISENTO        20200911MG551  0128642404P000000001663500000000000000000000000000000000000000000000000000000000N
5000149895000120ISENTO        20200903MG551  0021312102P000000027230000000000000000000000000000000000000000000000000000000000N
5023399397000131ISENTO        20200904MG551  8118981101P000000015970000000001272000000000015264000000000000000000000000000000N
5023399397000131ISENTO        20200901MG553  8571051403P000000000848900000000000000000000000000000000000000000000000000000000N
5023399397000131ISENTO        20200909MG553  8749621403P000000001853000000000000000000000000000000000000000000000000000000000N
5023399397000131ISENTO        20200914MG553  8899011403P000000001167600000000000000000000000000000000000000000000000000000000N
5023399397000131ISENTO        20200922MG553  9090991403P000000003009800000000000000000000000000000000000000000000000000000000N
5023399397000131ISENTO        20200916MG551  6823601102P000000000381000000000038100000000000686000000000000000000000000001800N
5023399397000131ISENTO        20200916MG551  6823601405P000000000909900000000000000000000000000000000000000000000000000000000N
5023399397000131ISENTO        20200929MG551  6842961403P000000002963700000000000000000000000000000000000000000000000000000000N
5023399397000131ISENTO        20200903MG553  5647671405P000000019602000000000000000000000000000000000007156300000000000000000N
5023399397000131ISENTO        20200911MG553  5653991405P000000015764000000000000000000000000000000000005635100000000000000000N
5023399397000131ISENTO        20200911MG553  5654001910P000000001336200000000000000000000000000000000000475400000000000000000N
5023399397000131ISENTO        20200922MG551  2196911405P000000004936900000000000000000000000000000000000000000000000000000000N
5023399397000131ISENTO        20200901MG551  4850811405P000000008318500000000000000000000000000000000000000000000000000000000N
5023399397000131ISENTO        20200903MG551  0035021102P000000012750000000000000000000000000000000000001004700000000000000000N
5023399397000131ISENTO        20200916MG551  8120351102P000000004392000000000000000000000000000000000000000000000000000000000N
5023399397000131ISENTO        20200916MG551  8120361102P000000004812000000000000000000000000000000000000000000000000000000000N
5023399397000131ISENTO        20200905MG551  1568881101P000000003439700000000343970000000006193000000000000000000000000001800N
5023399397000131ISENTO        20200901MG553  6049351405P000000017691000000000000000000000000000000000000000000000000000000000N
5023399397000131ISENTO        20200904MG553  6065841403P000000028833000000000000000000000000000000000000000000000000000000000N
5023399397000131ISENTO        20200908MG553  6075481403P000000281000600000000000000000000000000000000000000000000000000000000N
5023399397000131ISENTO        20200915MG553  6104681405P000000002947600000000000000000000000000000000000000000000000000000000N
5023399397000131ISENTO        20200915MG553  6104691949P000000000146500000000000000000000000000000000000000000000000000000000N
5023399397000131ISENTO        20200922MG553  6131771405P000000008973000000000000000000000000000000000000000000000000000000000N
5023399397000131ISENTO        20200929MG553  6162261405P000000017790800000000000000000000000000000000000000000000000000000000N
5023399397000131ISENTO        20200910MG551  6656281405P000000003159200000000000000000000000000000000001604300000000001940000N
5023399397000131ISENTO        20200910MG551  6656281102P000000002360800000000236910000000004264000000001604300000000001941800N
5023399397000131ISENTO        20200911MG551  6660551405P000000004279800000000000000000000000000000000002034100000000001940000N
5023399397000131ISENTO        20200911MG551  6660551102P000000001798700000000180440000000003248000000002034100000000001941800N
5023399397000131ISENTO        20200925MG551  6735821405P000000003981200000000000000000000000000000000001203000000000001940000N
5023399397000131ISENTO        20200923MG550  7608311102P000000001752700000000092500000000001665000000000000000000000000000000N
5023399397000131ISENTO        20200920MG551  1257141405P000000014692400000000000000000000000000000000000000000000000000000000N
5023399397000131ISENTO        20200920MG551  1263621910P000000000938800000000000000000000000000000000000000000000000000000000N
5023399397000131ISENTO        20200904MG551  1881221405P000000012970600000000000000000000000000000000000000000000000016310000N
5023399397000131ISENTO        20200911MG551  1927221405P000000004095000000000000000000000000000000000000000000000000005130000N
5023399397000131ISENTO        20200918MG551  1971851405P000000013412800000000000000000000000000000000000000000000000016860000N
5023399397000131ISENTO        20200903MG550  0382631102P000000002045500000000204550000000003682000000000000000000000000001800N
5023399397000131ISENTO        20200903MG550  0382641403P000000000248100000000000000000000000000000000000000000000000000000000N
5023399397000131ISENTO        20200930MG550  1882321102P000000001459700000000145970000000002628000000000000000000000000001800N
5023399397000131ISENTO        20200930MG550  1882331403P000000002124000000000000000000000000000000000000000000000000002700000N
5023399397000131ISENTO        20200901MG551  0235941405P000000005460000000000000000000000000000000000001704600000000000000000N
5023399397000131ISENTO        20200925MG551  6050521403P000000000893000000000000000000000000000000000000463500000000000000000N
5023399397000131ISENTO        20200925MG551  6050531403P000000001936200000000000000000000000000000000000976700000000000000000N
5023399397000131ISENTO        20200910MG551  2102801403P000000004819600000000000000000000000000000000000991700000000000000000N
5023399397000131ISENTO        20200924MG551  2191521403P000000002115000000000000000000000000000000000000446200000000000000000N
5021089693000100ISENTO        20200901MG551  0091161405P000000003400000000000000000000000000000000000000000000000000000000000N
5021089693000100ISENTO        20200909MG551  0155271102P000000003673400000000369140000000006645000000001155300000000001801800N
5000959727000109ISENTO        20200930MG551  0004251401P000000053792000000000000000000000000000000000000000000000000000000000N
5000959724000167ISENTO        20200930MG551  0004241401P000000053792000000000000000000000000000000000000000000000000000000000N
5023809403000181ISENTO        20200922MG553  0127641403P000000001326100000000000000000000000000000000000349100000000000000000N
5023809403000181ISENTO        20200910MG552  7642531403P000000001275800000000000000000000000000000000000000000000000000000000N
5023809403000181ISENTO        20200910MG552  7642561403P000000003079300000000000000000000000000000000000000000000000000000000N
5023809403000181ISENTO        20200911MG552  7677161411P000000001275800000000000000000000000000000000000000000000000000000000N
5023809403000181ISENTO        20200917MG552  7828491403P000000003949000000000000000000000000000000000000000000000000000000000N
5023809403000181ISENTO        20200924MG552  7994281403P000000000664100000000000000000000000000000000000000000000000000000000N
5023809403000181ISENTO        20200924MG552  7994311403P000000002427900000000000000000000000000000000000000000000000000000000N
5023809403000181ISENTO        20200911MG551  7537081403P000000001075900000000000000000000000000000000000203000000000000000000N
5023809403000181ISENTO        20200911MG551  7537081102P000000001963500000000000000000000000000000000000203000000000000000000N
5023809403000181ISENTO        20200922MG553  9091501403P000000000530400000000000000000000000000000000000000000000000000000000N
5023809403000181ISENTO        20200930MG553  2096311403P000000002237600000000000000000000000000000000000000000000000000000000N
5023809403000181ISENTO        20200930MG553  2096311102P000000000374600000000037460000000000675000000000000000000000000001800N
5023809403000181ISENTO        20200922MG553  0109951403P000000001166900000000000000000000000000000000000368300000000000000000N
5023809403000181ISENTO        20200901MG553  5645311403P000000001266000000000000000000000000000000000000426300000000000000000N
5023809403000181ISENTO        20200909MG553  5651441403P000000001080000000000000000000000000000000000000395000000000000000000N
5023809403000181ISENTO        20200916MG551  5650461403P000000001159200000000000000000000000000000000000312600000000000000000N
5023809403000181ISENTO        20200929MG551  2295351403P000000004196100000000000000000000000000000000000000000000000000000000N
5023809403000181ISENTO        20200929MG551  2295361910P000000000058300000000000000000000000000000000000000000000000000000000N
5023809403000181ISENTO        20200929MG551  1285691403P000000004134700000000000000000000000000000000001070000000000000000000N
5023809403000181ISENTO        20200929MG551  1285691102P000000000304300000000030430000000000548000000001070000000000000001800N
5023809403000181ISENTO        20200912MG551  8086881102P000000002406000000000000000000000000000000000000000000000000000000000N
5023809403000181ISENTO        20200912MG551  8086881403P000000001079400000000000000000000000000000000000000000000000000000000N
5023809403000181ISENTO        20200921MG551  8174791102P000000001466400000000000000000000000000000000000000000000000000000000N
5023809403000181ISENTO        20200930MG551  9259911102P000000002125000000000214730000000003865000000000000000000000007991800N
5023809403000181ISENTO        20200916MG551  2710461102P000000000600800000000031430000000000566000000000143200000000000000000N
5023809403000181ISENTO        20200901MG553  6048511403P000000016228400000000000000000000000000000000000000000000000000000000N
5023809403000181ISENTO        20200901MG553  6048521403P000000002560800000000000000000000000000000000000000000000000000000000N
5023809403000181ISENTO        20200904MG553  6065631403P000000003719000000000000000000000000000000000000000000000000000000000N
5023809403000181ISENTO        20200904MG553  6065641403P000000006830400000000000000000000000000000000000000000000000000000000N
5023809403000181ISENTO        20200908MG553  6075561403P000000014797800000000000000000000000000000000000000000000000000000000N
5023809403000181ISENTO        20200911MG553  6092061403P000000010349600000000000000000000000000000000000000000000000000000000N
5023809403000181ISENTO        20200915MG553  6105041403P000000012514000000000000000000000000000000000000000000000000000000000N
5023809403000181ISENTO        20200918MG553  6121511403P000000005588200000000000000000000000000000000000000000000000000000000N
5023809403000181ISENTO        20200922MG553  6131531403P000000012908400000000000000000000000000000000000000000000000000000000N
5023809403000181ISENTO        20200925MG553  6149231403P000000007829000000000000000000000000000000000000000000000000000000000N
5023809403000181ISENTO        20200929MG553  6163731403P000000018139400000000000000000000000000000000000000000000000000000000N
5023809403000181ISENTO        20200912MG551  0722591403P000000003579500000000000000000000000000000000000000000000000002500000N
5023809403000181ISENTO        20200912MG551  0722591102P000000001679400000000168730000000003037000000000000000000000002501800N
5023809403000181ISENTO        20200904MG551  0049711403P000000002964900000000000000000000000000000000000000000000000000000000N
5023809403000181ISENTO        20200904MG551  0049711102P000000000508000000000000000000000000000000000000000000000000000000000N
5023809403000181ISENTO        20200916MG5528 2284161403P000000023469200000000000000000000000000000000000000000000000000000000N
5023809403000181ISENTO        20200916MG5528 2284161102P000000000874800000000087480000000001575000000000000000000000000001800N
5023809403000181ISENTO        20200916MG5528 2284161910P000000000145800000000000000000000000000000000000000000000000000000000N
5023809403000181ISENTO        20200922MG5528 2358281403P000000002720500000000000000000000000000000000000000000000000000000000N
5023809403000181ISENTO        20200930MG5528 2497791403P000000011710700000000000000000000000000000000000000000000000000000000N
5023809403000181ISENTO        20200916MG555  1355821403P000000002188800000000000000000000000000000000000344100000000000000000N
5023809403000181ISENTO        20200904MG551  1881601403P000000005296600000000000000000000000000000000000000000000000002350000N
5023809403000181ISENTO        20200911MG551  1926351403P000000004785600000000000000000000000000000000000000000000000002100000N
5023809403000181ISENTO        20200918MG551  1973271403P000000007223600000000000000000000000000000000000000000000000003150000N
5023809403000181ISENTO        20200925MG551  2016631403P000000004069700000000000000000000000000000000000000000000000001810000N
5023809403000181ISENTO        20200925MG550  1492611102P000000004161700000000418870000000007539000000000000000000000002701800N
5023809403000181ISENTO        20200925MG550  1492621403P000000001916200000000000000000000000000000000000000000000000000000000N
5023809403000181ISENTO        20200914MG551  0570331403P000000001423300000000000000000000000000000000000000000000000000000000N
5023809403000181ISENTO        20200914MG551  0570341403P000000000306300000000000000000000000000000000000000000000000000000000N
5023809403000181ISENTO        20200914MG551  0570351403P000000000524800000000000000000000000000000000000000000000000000000000N
5023809403000181ISENTO        20200914MG551  0570361403P000000002059300000000000000000000000000000000000000000000000000000000N
5023809403000181ISENTO        20200904MG551  0511251403P000000002759100000000000000000000000000000000000000000000000000000000N
5023809403000181ISENTO        20200914MG552000346751403P000000000955700000000000000000000000000000000000000000000000000000000N
5023809403000181ISENTO        20200920MG552000376251403P000000000783200000000000000000000000000000000000000000000000000000000N
5023809403000181ISENTO        20200928MG552000406641403P000000000433300000000000000000000000000000000000000000000000000000000N
5023809403000181ISENTO        20200903MG551  5998371403P000000001474100000000000000000000000000000000000551100000000000000000N
5023809403000181ISENTO        20200917MG551  6031861403P000000001460800000000000000000000000000000000000751700000000000000000N
5068534668000152ISENTO        20200921MG551  1644021405P000000003114600000000000000000000000000000000001139600000000000000000N
5068534668000152ISENTO        20200921MG551  1644021102P000000002391400000000239140000000004304000000001139600000000000001800N
5068534668000152ISENTO        20200911MG551  0842631401P000000022568100000000000000000000000000000000006436300000000000000000N
5068534668000152ISENTO        20200924MG551  0845911401P000000024200500000000000000000000000000000000006901900000000000000000N
5068534668000152ISENTO        20200921MG553  0196111403P000000000800000000000000000000000000000000000000126200000000000000000N
5068534668000152ISENTO        20200921MG553  0196111102P000000000160000000000000000000000000000000000000126200000000000000000N
5068534668000152ISENTO        20200909MG551  0002001101P000000009000000000000000000000000000000000000001458000000000000000000N
5068534668000152ISENTO        20200922MG551  0298181102P000000004038700000000403870000000007270000000000000000000000000001800N
5068534668000152ISENTO        20200922MG551  0298181403P000000000413600000000000000000000000000000000000000000000000000000000N
5068534668000152ISENTO        20200923MG551  0298691403P000000004255900000000000000000000000000000000000000000000000000000000N
5068534668000152ISENTO        20200922MG551  0322571405P000000017800000000000000000000000000000000000003951600000000000000000N
5068534668000152ISENTO        20200928MG551  0323691405P000000030000000000000000000000000000000000000006660000000000000000000N
5068534668000152ISENTO        20200901MG551  7544831949P000000000709500000000000000000000000000000000000191300000000000000000N
5068534668000152ISENTO        20200909MG551  7990691102P000000001028200000000103410000000001862000000003097500000000007991800N
5068534668000152ISENTO        20200917MG551  8504181102P000000003473700000000349080000000006283000000000000000000000007991800N
5068534668000152ISENTO        20200928MG551  9073851102P000000003131100000000314870000000005667000000000000000000000007991800N
5068534668000152ISENTO        20200902MG551  0019171101P000000020000000000000000000000000000000000000000592000000000000000000N
5068534668000152ISENTO        20200916MG551  0019201101P000000020000000000000000000000000000000000000000596000000000000000000N
5068534668000152ISENTO        20200903MG550  0804051405P000000008361000000000000000000000000000000000000000000000000000000000N
5068534668000152ISENTO        20200903MG550  0804051656P000000007341400000000000000000000000000000000000000000000000000000000N
5068534668000152ISENTO        20200925MG550  0808031405P000000002650000000000000000000000000000000000000000000000000000000000N
5068534668000152ISENTO        20200929MG555  6509971401P000000011000000000000000000000000000000000000000000000000000000000000N
5068534668000152ISENTO        20200924MG550  7641381102P000000003076900000000277090000000004987000000000000000000000000001800N
5068534668000152ISENTO        20200918MG551  2834901403P000000011156500000000000000000000000000000000000000000000000000000000N
5068534668000152ISENTO        20200918MG551  2834901102P000000009833800000000983380000000017702000000000000000000000000001800N
5068534668000152ISENTO        20200901MG551  0136492101P000000001399500000000000000000000000000000000000384100000000000000000N
50175004550001791833621640056 20200924MG551  0882741405P000000000175000000000000000000000000000000000000056000000000000000000N
5066347519000159ISENTO        20200909MG551  0852941401P000000000646200000000000000000000000000000000000273700000000000000000N
5066347519000159ISENTO        20200916MG551  0855501401P000000001707600000000000000000000000000000000000723300000000000000000N
5066347519000159ISENTO        20200902MG551  0364651405P000000009412400000000000000000000000000000000000000000000000000000000N
5066347519000159ISENTO        20200902MG551  0364731405P000000004650700000000000000000000000000000000000000000000000000000000N
5066347519000159ISENTO        20200923MG551  0367111405P000000007618300000000000000000000000000000000000000000000000000000000N
5066347519000159ISENTO        20200908MG552  0341601405P000000001684700000000000000000000000000000000000720700000000000000000N
5066347519000159ISENTO        20200922MG552  0352531405P000000000406200000000000000000000000000000000000173700000000000000000N
5066347519000159ISENTO        20200925MG551  1223181403P000000009043900000000000000000000000000000000000000000000000000000000N
5066347519000159ISENTO        20200911MG550  0074721101P000000000650000000000000000000000000000000000000000000000000000000000N
5018739250000103ISENTO        20200902MG551  0041811403P000000007427000000000000000000000000000000000001624600000000000000000N
5018739250000103ISENTO        20200908MG551  0095081102P000000000340000000000000000000000000000000000000084600000000000000000N
5018739250000103ISENTO        20200901MG551  0387261901P000000002000000000000000000000000000000000000000641800000000000000000N
5018739250000103ISENTO        20200919MG551  0664251124P000000001700000000000000000000000000000000000000000000000000000000000N
5018739250000103ISENTO        20200919MG551  0664261902P000000001400000000000000000000000000000000000000000000000000000000000N
5018739250000103ISENTO        20200917MG551  0530581102P000000003600000000000360000000000006480000000000931700000000000001800N
5018739250000103ISENTO        20200914MG551  0058091405P000000002900000000000000000000000000000000000000000000000000000000000N
5018739250000103ISENTO        20200915MG551  0388131901P000000016600000000000000000000000000000000000005326800000000000000000N
5018739250000103ISENTO        20200916MG551  0388311901P000000018800000000000000000000000000000000000006032800000000000000000N
5018739250000103ISENTO        20200922MG551  0388861901P000000021900000000000000000000000000000000000007027700000000000000000N
5018739250000103ISENTO        20200930MG551  0389541901P000000001500000000000000000000000000000000000000481400000000000000000N
5018739250000103ISENTO        20200930MG551  0389551901P000000006000300000000000000000000000000000000001925500000000000000000N
5018739250000103ISENTO        20200930MG551  0389561901P000000001500000000000000000000000000000000000000481400000000000000000N
5001095630000150ISENTO        20200925MG551  0898651405P000000000848300000000000000000000000000000000000188400000000000000000N
5001095630000150ISENTO        20200911MG551  0892401405P000000001097800000000000000000000000000000000000243900000000000000000N
5001095630000150ISENTO        20200914MG5528 2247081403P000000010205500000000000000000000000000000000000000000000000000000000N
5001095630000150ISENTO        20200921MG5528 2341191403P000000005746300000000000000000000000000000000000000000000000000000000N
5001095630000150ISENTO        20200921MG5528 2345781102P000000001173600000000117360000000002112000000000000000000000000001800N
5001095630000150ISENTO        20200921MG5528 2345781910P000000000391200000000000000000000000000000000000000000000000000000000N
5001095630000150ISENTO        20200929MG5528 2470211403P000000006766700000000000000000000000000000000000000000000000000000000N
5001095630000150ISENTO        20200901MG551  1854481405P000000004201200000000000000000000000000000000000000000000000000000000N
5001095630000150ISENTO        20200905MG551  1888181405P000000003972000000000000000000000000000000000000000000000000000000000N
5001095630000150ISENTO        20200908MG551  1903141411P000000000133200000000000000000000000000000000000000000000000000000000N
5001095630000150ISENTO        20200915MG551  1942481405P000000007412400000000000000000000000000000000000000000000000000000000N
5001095630000150ISENTO        20200922MG551  1990661405P000000004768800000000000000000000000000000000000000000000000000000000N
5001095630000150ISENTO        20200929MG551  2033481405P000000005299500000000000000000000000000000000000000000000000000000000N
5001095630000150ISENTO        20200914MG551  0569851405P000000000711600000000000000000000000000000000000000000000000000000000N
5001095630000150ISENTO        20200928MG551  0646911405P000000001139200000000000000000000000000000000000000000000000000000000N
5068537265000167ISENTO        20200928MG551  3499871102P000000003461000000000118400000000002131000000000482000000000000001800N
5068537265000167ISENTO        20200909MG555  1305351405P000000006313800000000000000000000000000000000001401600000000000000000N
5068537265000167ISENTO        20200930MG555  1448311405P000000006492600000000000000000000000000000000001441400000000000000000N
5068537265000167ISENTO        20200908MG551  1897751405P000000003192000000000000000000000000000000000000000000000000001960000N
5068537265000167ISENTO        20200921MG551  1981851405P000000003601200000000000000000000000000000000000000000000000002190000N
5068537265000167ISENTO        20200928MG551  2025211405P000000003577500000000000000000000000000000000000000000000000002190000N
5068537265000167ISENTO        20200926MG551013143491101P000000004434000000000000000000000000000000000000000000000000000000000N
5000959727000109ISENTO        20200901MG551  5803782401P000000026426000000000000000000000000000000000011283500000000000000000N
5000959727000109ISENTO        20200901MG551  5803782101P000000012294000000001229400000000014753000000011283500000000000001200N
5000959724000167ISENTO        20200930MG551  0004241401P000000053792000000000000000000000000000000000000000000000000000000000N
50173928790001671830191670050 20200902MG551  0870341405P000000000823000000000000000000000000000000000000263600000000000000000N
50173928790001671830191670050 20200911MG550  0718571102P000000004592100000000461910000000008314000000000000000000000002701800N
50173928790001671830191670050 20200911MG550  0718581403P000000002679200000000000000000000000000000000000000000000000000000000N
50173928790001671830191670050 20200911MG550  0718591102P000000000149400000000014940000000000269000000000000000000000000001800N
50173928790001671830191670050 20200930MG550  1782261102P000000001625800000000162580000000002926000000000000000000000000001800N
50173928790001671830191670050 20200930MG550  1782271403P000000000075600000000000000000000000000000000000000000000000000000000N
50173928790001671830191670050 20200930MG550  1782281403P000000002864100000000000000000000000000000000000000000000000002700000N
50173928790001671830191670050 20200910MG551  6643361405P000000003539000000000000000000000000000000000000000000000000002350000N
5000959727000109ISENTO        20200930MG551  0004251401P000000053792000000000000000000000000000000000000000000000000000000000N
5000959727000109ISENTO        20200909MG550  0507072401P000000016949400000000000000000000000000000000004881300000000000000000N
5000959727000109ISENTO        20200909MG550  0507072101P000000001881000000000213770000000002565000000004881300000000000001200N
5042853549000179ISENTO        20200925MG559210021641101P000000000529200000000000000000000000000000000000000000000000000000000N
5042853549000179ISENTO        20200925MG551  0979641403P000000054144000000000000000000000000000000000000000000000000000000000N
5042853549000179ISENTO        20200921MG551  1622211102P000000009368100000000313110000000003757000000000000000000000000000000N
5042853549000179ISENTO        20200915MG551  0492741403P000000035180000000000000000000000000000000000000000000000000000000000N
5042853549000179ISENTO        20200903MG552  1235211102P000000003582000000000358200000000006447000000000000000000000000001800N
5042853549000179ISENTO        20200903MG552  1235211403P000000001038000000000000000000000000000000000000000000000000000000000N
5042853549000179ISENTO        20200929MG551  7052381401P000000010804400000000000000000000000000000000000000000000000000000000N
5042853549000179ISENTO        20200929MG551  7052381405P000000001363200000000000000000000000000000000000000000000000000000000N
5042853549000179ISENTO        20200929MG551  7052631910P000000002052400000000000000000000000000000000000000000000000000000000N
5042853549000179ISENTO        20200929MG551  7052651911P000000000177500000000000000000000000000000000000000000000000000000000N
5042853549000179ISENTO        20200911MG551  0343811102P000000002610000000000000000000000000000000000000000000000000000000000N
5042853549000179ISENTO        20200925MG551  0346411102P000000002610000000000000000000000000000000000000000000000000000000000N
5042853549000179ISENTO        20200904MG551  7188751102P000000009900000000000990000000000017820000000000000000000000000001800N
5042853549000179ISENTO        20200904MG551  7188751910P000000000920000000000008000000000000144000000000000000000000000001800N
5042853549000179ISENTO        20200903MG550  7245551102P000000004766700000000320720000000005773000000000000000000000000001800N
5042853549000179ISENTO        20200915MG551  0552141102P000000001836900000000183690000000003307000000000000000000000000001800N
5042853549000179ISENTO        20200928MG551  0556111102P000000004923500000000492350000000008863000000000000000000000000001800N
5042853549000179ISENTO        20200928MG551  0556111403P000000000286100000000000000000000000000000000000000000000000000000000N
5042853549000179ISENTO        20200924MG551  0384491102P000000007923200000000288930000000005201000000000000000000000000001800N
5042853549000179ISENTO        20200923MG551  6078372403P000000002145800000000000000000000000000000000000000000000000000000000N
5042853549000179ISENTO        20200923MG551  6078372102P000000005456700000000545670000000006253000000000000000000000000001200N
53210896930001001832784850075 20200913MG551  8236571403P000000007774600000000000000000000000000N                              
53210896930001001832784850075 20200928MG551  9073761403P000000006380000000000000000000000000000N                              
53210896930001001832784850075 20200911MG550  7386571403P000000005178100000000000000000000000000N                              
53210896930001001832784850075 20200928MG550  7689321403P000000004833100000000000000000000000000N                              
53210896930001001832784850075 20200911MG550  0721821403P000000000851700000000000000000000000000N                              
53210896930001001832784850075 20200911MG551  2810311403P000000001565900000000000000000000000000N                              
53210896930001001832784850075 20200928MG551  9073931403P000000006819700000000000000000000000000N                              
53210896930001001832784850075 20200913MG551  8236591403P000000003796300000000000000000000000000N                              
53210896930001001832784850075 20200921MG551  8690641403P000000003432600000000000000000000000000N                              
53210896930001001832784850075 20200928MG551  9073801403P000000006886700000000000000000000000000N                              
53210896930001001832784850075 20200914MG550  7418321403P000000000306500000000000000000000000000N                              
53210896930001001832784850075 20200918MG551  2834921403P000000000532600000000000000000000000000N                              
53210896930001001832784850075 20200917MG551  8504051403P000000001475400000000000000000000000000N                              
53210896930001001832784850075 20200902MG551  7618421403P000000004582600000000000000000000000000N                              
53210896930001001832784850075 20200918MG551  0632941401P000000001238300000000000000000000000000N                              
53210896930001001832784850075 20200904MG551  0623631401P000000000619200000000000000000000000000N                              
53210896930001001832784850075 20200914MG553  8899721401P000000000769200000000000000000000000000N                              
53210896930001001832784850075 20200910MG551  8052691403P000000000356300000000000000000000000000N                              
53210896930001001832784850075 20200919MG551  8170241403P000000002272900000000000000000000000000N                              
53210896930001001832784850075 20200901MG551  0530671401P000000001712000000000000000000000000000N                              
53210896930001001832784850075 20200915MG551  0549681401P000000001400700000000000000000000000000N                              
53210896930001001832784850075 20200922MG551  0559361401P000000001089400000000000000000000000000N                              
53210896930001001832784850075 20200929MG551  0569251401P000000001089400000000000000000000000000N                              
53210896930001001832784850075 20200908MG551013105391403P000000002154800000000000000000000000000N                              
53210896930001001832784850075 20200923MG550  7608371403P000000001854300000000000000000000000000N                              
53210896930001001832784850075 20200901MG553  8571051401P000000000701300000000000000000000000000N                              
53210896930001001832784850075 20200909MG553  8749621401P000000000723500000000000000000000000000N                              
53210896930001001832784850075 20200914MG553  8899011403P000000001780200000000000000000000000000N                              
53210896930001001832784850075 20200922MG553  9090991403P000000001031500000000000000000000000000N                              
53210896930001001832784850075 20200910MG552  1751761401P000000002367100000000000000000000000000N                              
53210896930001001832784850075 20200924MG552  1840411403P000000003563200000000000000000000000000N                              
53210896930001001832784850075 20200916MG551  8120361403P000000003783100000000000000000000000000N                              
53210896930001001832784850075 20200905MG551  1568881401P000000000744900000000000000000000000000N                              
53210896930001001832784850075 20200903MG551  0706231403P000000002737000000000000000000000000000N                              
53210896930001001832784850075 20200911MG551  0713741403P000000002795200000000000000000000000000N                              
53210896930001001832784850075 20200919MG551  0722071403P000000004011600000000000000000000000000N                              
53210896930001001832784850075 20200923MG551  0725411403P000000003340800000000000000000000000000N                              
53210896930001001832784850075 20200911MG550  7386651403P000000011515300000000000000000000000000N                              
53210896930001001832784850075 20200923MG550  7608311403P000000005178900000000000000000000000000N                              
53210896930001001832784850075 20200924MG552  7994311403P000000000296700000000000000000000000000N                              
53210896930001001832784850075 20200922MG553  9091501403P000000000539900000000000000000000000000N                              
53210896930001001832784850075 20200912MG551  8086881403P000000001183900000000000000000000000000N                              
53210896930001001832784850075 20200916MG551  8126361403P000000003238600000000000000000000000000N                              
53210896930001001832784850075 20200926MG551  8262191403P000000002737500000000000000000000000000N                              
53210896930001001832784850075 20200930MG551  9259911403P000000005599300000000000000000000000000N                              
53210896930001001832784850075 20200920MG552000376431403P000000000530000000000000000000000000000N                              
53210896930001001832784850075 20200902MG551  3851091403P000000005678500000000000000000000000000N                              
53210896930001001832784850075 20200909MG551  7990691403P000000011776500000000000000000000000000N                              
53210896930001001832784850075 20200917MG551  8504181403P000000011867600000000000000000000000000N                              
53210896930001001832784850075 20200928MG551  9073851403P000000009302000000000000000000000000000N                              
53210896930001001832784850075 20200924MG550  7641381403P000000007639200000000000000000000000000N                              
53210896930001001832784850075 20200929MG551  0570361401P000000000994700000000000000000000000000N                              
53210896930001001832784850075 20200903MG550  7245551403P000000003609700000000000000000000000000N                              
53210896930001001832784850075 20200923MG551  6078372403P000000000328100000000000000000000000000N                              
5421089693000100559210019421101   001              000000028000000000052920000000000000000000000000000000000000000000000000000
5421089693000100553  21122911020  005310641        000000004000000000073120000000000000000000243380000000243380000000000001800
5421089693000100551  1263651405   0015464          000000008000000000457920000000000000000000000000000000000000000000000000000
5421089693000100551  4899221102   001000448        000000050000000000137000000000000000000000025860000000025860000000000000000
5421089693000100551  0076251102   00100036         000000023000000000040940000000000000000000000000000000000000000000000000000
5421089693000100552  24036111020  00117250         000000003000000000089970000000000000000000267780000000267780000000000001800
5421089693000100552  24036219100  00117250         000000001000000000015000000000000000000000044640000000044640000000000001800
5421089693000100551  1345711910   0015358          000000002000000000059760000000000000000000000000000000000000000000000000000
5421089693000100551  1345721405   00131            000000001000000000043120000000000000000000000000000000000000000000000000000
5421089693000100551  0492751401   00150            000000002000000000169360000000000000000000000000000000000000000000000000000
5421089693000100551  1483791405   00100018730      000000001000000000183430000000000000000000000000000000000000000000000000000
5421089693000100552  12484511020  00131812         000000001000000000029900000000000000000000478460000000478460000000000001800
5421089693000100551  6883131401   0014758          000000005000000000569400000000000000000000000000000000000000000000000000000
5421089693000100551  6883501910   0024758          000000001000000000113880000000000000000000000000000000000000000000000000000
5421089693000100551  6930211401   0094758          000000005000000000569400000000003710000000000000000000000000000000000000000
5421089693000100551  6930341910   0104758          000000001000000000113880000000000740000000000000000000000000000000000000000
5421089693000100551  0343871910   001              000000100000000000001000000000000000000000000000000000000000000000000000000
5421089693000100551  0346471102   001              000000050000000000130500000000000000000000000000000000000000000000000000000
5421089693000100551  8236571403   001085176        000000001000000000014180000000000000000000000000000000017470000000000000000
5421089693000100551  9073761403   001055450        000000001000000000050010000000000000000000000000000000064060000000000000000
5421089693000100551  7208281405   0016480          000000004000000000103200000000000000000000000000000000000000000000000000000
5421089693000100551  72082919100  0016338          000000001000000000004450000000000000000000143040000000143040000000000001800
5421089693000100551  72083011020  0014338          000000041000000000965550000000000000000004042280000004042280000000000001800
5421089693000100551  7265051910   0014003          000000200000000000084000000000000000000000000000000000000000000000000000000
5421089693000100551  15178811020  0010020346       000000010000000000107300000000000000000000236060000000236060000000000001800
5421089693000100551  1529221405   0040600032       000000003000000000032220000000000000000000000000000000000000000000000000000
5421089693000100551  01639911020  001204           000000015000000000585000000000000000000000585000000000585000000000000001800
5421089693000100551  0165531102   001129           000000030000000001740000000000000000000000000000000000000000000000000000000
5421089693000100550  73865711020  00486660         000000001000000000093210000000000000000000553230000000553230000000000001800
5421089693000100550  7689321102   015114967        000000003000000000034920000000000000000000479230000000479230000000000000000
5421089693000100551  0552161405   04811145         000000030000000000288620000000000000000000000000000000000000000000000000000
5421089693000100551  05561711020  02910802         000000001000000000015900000000000000000000454360000000454360000000000001800
5421089693000100551  0453281910   0010000868       000000002000000000215980000000000000000000000000000000000000000000000000000
5421089693000100551  0453321910   0010000868       000000010000000001079900000000000000000000000000000000000000000000000000000
5421089693000100551  0453531405   0010000868       000000010000000001079900000000000000000000000000000000000000000000000000000
5421089693000100551  01806011020  0010006432       000000002000000000068520000000000000000000318130000000318130000000000001800
5421089693000100551  01806119100  0010006343       000000001000000000013870000000000000000000013870000000013870000000000001800
5421089693000100551  2796521102   0218205          000000002000000000028920000000000000000000857480000000857480000000000000000
5421089693000100550  0382691403   001606140        000000005000000000979500000000000000000000000000000000000000000000000000000
5421089693000100550  07218111020  001713180        000000012000000000228720000000000000000000532750000000532750000000000001800
5421089693000100550  0721821403   001600158        000000012000000000188760000000000000000000000000000000085170000000000000000
5421089693000100551  2810311403   0259287          000000024000000000048510000000000000000000000000000000000000000000000000000
5421089693000100551  22131121010  0010622          000000001000000000383110000000000000000002916310000002916310000000019161200
5421089693000100551  17095511020  00115853         000000005000000001061550000000000000000009762220000009762220000000000001800
5421089693000100551  1263671405   00165            000000005000000000497800000000000000000000000000000000000000000000000000000
5421089693000100552  2403601405   00113717         000000010000000001138900000000000000000000000000000000000000000000000000000
5421089693000100551  0492731401   00150            000000001000000000084700000000000000000000000000000000000000000000000000000
5421089693000100552  1235191405   00135698         000000001000000000059900000000000000000000000000000000000000000000000000000
5421089693000100552  1246351405   00137732         000000004000000000046480000000000000000000000000000000000000000000000000000
5421089693000100551  9073931403   001055450        000000001000000000050010000000000000000000000000000000064060000000000000000
5421089693000100551  15178711020  0010020346       000000015000000000169800000000000000000000339600000000339600000000000001800
5421089693000100551  01655811020  001129           000000020000000001160000000000000000000001160000000001160000000000000001800
5421089693000100551  05521511020  01810316         000000002000000000025010000000000000000000412190000000412190000000000001800
5421089693000100551  05561011020  02110477         000000004000000000017110000000000000000000537300000000537300000000000001800
5421089693000100551  0462791910   0010001821       000000001000000000101490000000000000000000000000000000000000000000000000000
5421089693000100551  0462801405   0010000167       000000001000000000205990000000000000000000000000000000000000000000000000000
5421089693000100551  0465741405   0010001716       000000005000000000542500000000000000000000000000000000000000000000000000000
5421089693000100551  01805911020  0010006220       000000002000000000130540000000000000000000400150000000400150000000000001800
5421089693000100551  01806219100  0010006343       000000001000000000013870000000000000000000013870000000013870000000000001800
5421089693000100551  01860411020  0010003387       000000011000000000161370000000000000000000740410000000740410000000000001800
5421089693000100551  01860519100  0010003387       000000001000000000014670000000000000000000067310000000067310000000000001800
5421089693000100551  28742811020  02712736         000000006000000000051480000000000000000001042530000001042530000000000001800
5421089693000100553  2112281403   007101003        000000010000000000006000000000000000000000000000000000000000000000000000000
5421089693000100551  0281591102   046030           000000001000000000018000000000000000000000000000000000000000000000000000000
5421089693000100551  1263661403   0015327          000000002000000000114480000000000000000000000000000000000000000000000000000
5421089693000100551  0971161403   00110230990100049000000005000000000538650000000000000000000000000000000000000000000000000000
5421089693000100552  24036511020  00117279         000000001000000000094840000000000000000000774250000000774250000000000001800
5421089693000100552  24036619100  00117250         000000001000000000015000000000000000000000059630000000059630000000000001800
5421089693000100551  0492721403   001440           000000002000000000096960000000000000000000000000000000000000000000000000000
5421089693000100552  12352011020  00132645         000000006000000000033000000000000000000000962230000000962230000000000001800
5421089693000100551  6883121403   0014758          000000005000000000569400000000000000000000000000000000000000000000000000000
5421089693000100551  6883441910   00310415         000000002000000000022540000000000000000000000000000000000000000000002250000
5421089693000100551  6883451911   00111177         000000025000000000004500000000000000000000000000000000000000000000000000000
5421089693000100551  6883491910   0024758          000000001000000000113880000000000000000000000000000000000000000000000000000
5421089693000100551  0343851102   001              000000050000000000130500000000000000000000000000000000000000000000000000000
5421089693000100551  0346451102   002              000000050000000000130500000000000000000000000000000000000000000000000000000
5421089693000100551  8236591403   001085785        000000002000000000032700000000000000000000000000000000023990000000000000000
5421089693000100551  8690641403   001064771        000000001000000000021090000000000000000000000000000000020400000000000000000
5421089693000100551  9073801403   001072564        000000001000000000003870000000000000000000000000000000004580000000000000000
5421089693000100551  1532431403   0010600040       000000003000000000032220000000000000000000000000000000000000000000000000000
5421089693000100550  7418321403   00614590         000000006000000000116940000000000000000000000000000000030650000000000000000
5421089693000100551  0123251102   0016399          000000003000000000040530000000000000000000000000000000000000000000000000000
5421089693000100551  0123261403   0015408          000000002000000000215080000000000000000000000000000000000000000000000000000
5421089693000100551  0552191403   00610579         000000006000000000079200000000000000000000000000000000000000000000000000000
5421089693000100551  0556221403   00510581         000000010000000000084840000000000000000000000000000000000000000000000000000
5421089693000100551  02120411020  0010007366       000000010000000000070810000000000000000000070810000000070810000000000001800
5421089693000100551  2796531403   00517165         000000006000000000044940000000000000000000000000000000000000000000000000000
5421089693000100551  2834921403   01422427         000000002000000000303100000000000000000000000000000000000000000000000000000
5421089693000100551  60498821020  00179210521      000000005000000002730250000000000000000002730250000002730250000000000001200
5421089693000100551  0013841403   0017897103590001 000000001000000000089000000000000000000000000000000000000000000000000000000
5421089693000100551  0068521102   001550           000000030000000000091920000000000000000000000000000000000000000000000000000
5421089693000100551  75447211020  002083817        000000002000000000127100000000000000000000670870000000670870000000000001800
5421089693000100551  85040511020  001083924        000000003000000000086820000000000000000000659280000000659280000000000001800
5421089693000100551  89122011020  002009485        000000001000000000048450000000000000000000902720000000902720000000000001800
5421089693000100551  00471711020  001230           000000036000000000540000000000000000000000360020000000360020000000000001800
5421089693000100552  13352721020  00100170004      000000204000000002193000000000000000000003673000000003673000000000000001200
5421089693000100551  0099942102   001102           000000021000000000312060000000000000000000000000000000000000000000000000000
5421089693000100551  00519421020  00150019099      000000006000000000299400000000018270000003471110000003471110000000000001200
5421089693000100551  00519629100  00160004099      000000001000000000016400000000000000000000098880000000098880000000000001200
5421089693000100558  07607221020  0010300710785    000000020000000000249310000000000000000003241030000003241030000000000000400
5421089693000100551  90133229110  00112            000000001000000000112860000000000000000000112860000000112860000000000001200
5421089693000100553  1726111656   001025           000000072000000000876960000000000000000000000000000000000000000000000000000
5421089693000100553  1741201656   001026           000000024000000000347760000000000000000000000000000000000000000000000000000
5421089693000100551  4880831405   00721799         000000001000000000010000000000000000000000000000000000000000000000000000000
5421089693000100551  4901791405   00316395         000000001000000000090000000000000000000000000000000000000000000000000000000
54210896930001005555 6333081405   00155599224      000000001000000000279130000000094130000000000000000000000000000000000000000
54210896930001005555 5963771923   00112625214      000000016000000002160000000000000000000000000000000000000000000000000000000
5421089693000100550  0358161102   001              000000024000000000332640000000000000000000000000000000000000000000000000000
5421089693000100550  0360121655   001              000000024000000000250080000000000000000000000000000000000000000000000000000
5421089693000100551  4872281405   00112121663      000000001000000000579690000000000000000000000000000000000000000000000000000
5421089693000100551  0224051405   001310740        000000001000000000015000000000004670000000000000000000000000000000000000000
5421089693000100552  0043841405   00115433         000000001000000000067000000000008260000000000000000000000000000000000000000
5421089693000100551  50199711020  0012601131       000000001000000000007200000000000000000000007200000000007200000000000001800
5421089693000100551  0007461102   0018626          000000002000000000020000000000000000000000000000000000000000000000000000000
5421089693000100551  0007521102   0016437          000000001000000000060000000000000000000000000000000000000000000000000000000
5421089693000100551  0007531102   0015738          000000002000000000120000000000000000000000000000000000000000000000000000000
5421089693000100551  0033301403   001000380        000000001000000000160000000000000000000000000000000000000000000000000000000
5421089693000100551  0724771405   001112029        000000001000000000265000000000000000000000000000000000000000000000000000000
5421089693000100551  0449851405   001977445        000000002000000000037400000000000000000000000000000000000000000000000000000
5421089693000100551  0021041403   001004046        000000001000000000280000000000000000000000000000000000000000000000000000000
5421089693000100552  0029411405   00020926         000000001000000000018000000000000000000000000000000000000000000000000000000
5421089693000100551  0123331405   0014210          000000001000000000330000000000000000000000000000000000000000000000000000000
5421089693000100551  0124541405   0013063          000000002000000000155400000000000000000000000000000000000000000000000000000
5421089693000100551  0172341405   001006842        000000001000000000090000000000000000000000000000000000000000000000000000000
5421089693000100551  0006661405   0017604          000000002000000000036000000000000000000000000000000000000000000000000000000
5421089693000100551  0061931405   001138028103     000000001000000000130000000000000000000000000000000000000000000000000000000
5421089693000100550  1963031405   00151842377      000000001000000000307200000000050870000000000000000000000000000000000000000
5421089693000100551  0048611405   00112642668      000000001000000000270000000000000000000000000000000000000000000000000000000
5421089693000100551  0049381405   00152076287      000000001000000000260000000000000000000000000000000000000000000000000000000
5421089693000100550  9702191405   001361278        000000001000000000290280000000052250000000000000000000000000000000000000000
5421089693000100550  9702331405   001362599        000000002000000000529540000000185340000000000000000000000000000000000000000
5421089693000100551  76184211020  001033683        000000001000000000054410000000000000000000137110000000137110000000000001800
5421089693000100550  1377481403   001041568        000000001000000000168000000000000000000000000000000000000000000000000000000
5421089693000100550  1377481403   001041568        000000001000000000168000000000000000000000000000000000000000000000000000000
5421089693000100551  0643381405   00115286593      000000001000000000203940000000000000000000000000000000000000000000000000000
5421089693000100551  0643381405   00115286593      000000001000000000203940000000000000000000000000000000000000000000000000000
5421089693000100551  1804781405   0011841          000000001000000000085000000000009900000000000000000000000000000000000000000
5421089693000100551  1804781405   0011841          000000001000000000085000000000009900000000000000000000000000000000000000000
5421089693000100551  0026941405   00188889         000000001000000000088000000000006730000000000000000000000000000000000000000
5421089693000100551  0026941405   00188889         000000001000000000088000000000006730000000000000000000000000000000000000000
5421089693000100551  7584051405   00109452050427   000000002000000000232300000000000000000000000000000000000000000000000000000
5421089693000100551  7584051405   00109452050427   000000002000000000232300000000000000000000000000000000000000000000000000000
5421089693000100558030034861405   0011291          000000002000000000580000000000000000000000000000000000000000000000000000000
5421089693000100558030034861405   0011291          000000002000000000580000000000000000000000000000000000000000000000000000000
5421089693000100558030035211405   0011520          000000002000000000436600000000000000000000000000000000000000000000000000000
5421089693000100558030035311405   0012129          000000002000000001191000000000000000000000000000000000000000000000000000000
5421089693000100558030035311405   0012129          000000002000000001191000000000000000000000000000000000000000000000000000000
5421089693000100558030036101405   0011291          000000002000000000590600000000000000000000000000000000000000000000000000000
5421089693000100558030036101405   0011291          000000002000000000590600000000000000000000000000000000000000000000000000000
5421089693000100558030036541405   0011820          000000002000000001758000000000000000000000000000000000000000000000000000000
5421089693000100558030036541405   0011820          000000002000000001758000000000000000000000000000000000000000000000000000000
5421089693000100558030032061405   0014853          000000002000000000396000000000000000000000000000000000000000000000000000000
5421089693000100558030032061405   0014853          000000002000000000396000000000000000000000000000000000000000000000000000000
54210896930001005524 0021581405   0012180          000000002000000000470000000000000000000000000000000000000000000000000000000
54210896930001005524 0022021405   0012180          000000002000000000470000000000000000000000000000000000000000000000000000000
54210896930001005524 0022021405   0012180          000000002000000000470000000000000000000000000000000000000000000000000000000
54210896930001005524 0023231405   0012148          000000002000000000614000000000000000000000000000000000000000000000000000000
54210896930001005524 0023231405   0012148          000000002000000000614000000000000000000000000000000000000000000000000000000
54210896930001005524 0023731405   00112133         000000002000000000890000000000000000000000000000000000000000000000000000000
54210896930001005524 0023731405   00112133         000000002000000000890000000000000000000000000000000000000000000000000000000
5421089693000100551  0000341102   0007917          000000001000000000063250000000000000000000000000000000000000000000000000000
5421089693000100551  0000341102   0007917          000000001000000000063250000000000000000000000000000000000000000000000000000
5421089693000100552  0058121405   0000080109       000000001000000000013800000000000000000000000000000000000000000000000000000
5421089693000100552  0058121405   0000080109       000000001000000000013800000000000000000000000000000000000000000000000000000
5421089693000100552  0058441102   0001199          000000001000000000016100000000000000000000000000000000000000000000000000000
5421089693000100552  0058441102   0001199          000000001000000000016100000000000000000000000000000000000000000000000000000
5421089693000100552  0058451102   0007917          000000001000000000063250000000000000000000000000000000000000000000000000000
5421089693000100552  0058451102   0007917          000000001000000000063250000000000000000000000000000000000000000000000000000
5421089693000100551  91369811020  0019850510000    000000005000000000069950000000000000000000148980000000148980000000000001800
5421089693000100551  91369811020  0019850510000    000000005000000000069950000000000000000000148980000000148980000000000001800
5421089693000100552  0168871656   00020760         000000001000000000017000000000000000000000000000000000000000000000000000000
5421089693000100552  0168871656   00020760         000000001000000000017000000000000000000000000000000000000000000000000000000
5421089693000100551  7915711405   00053898         000000006000000000085800000000000000000000000000000000000000000000000000000
5421089693000100551  7915711405   00053898         000000006000000000085800000000000000000000000000000000000000000000000000000
5421089693000100551  0251731405   00121598         000000002000000000040000000000000000000000000000000000000000000000000000000
5421089693000100551  0251731405   00121598         000000002000000000040000000000000000000000000000000000000000000000000000000
5421089693000100551  0632941401   0013232          000000010000000000219600000000000000000000000000000000123830000000000000000
5421089693000100551  0623631401   0013232          000000005000000000109800000000000000000000000000000000061920000000000000000
5421089693000100552  7642861403   001239706        000000003000000000354240000000000000000000000000000000000000000000000000000
5421089693000100553  8899721401   00100000000013818000000001000000000172000000000000000000000000000000000076920000000000000000
5421089693000100551  3164161908   001700563        000000001000000000627000000000000000000000000000000000000000000000000000000
5421089693000100551  68330611020  0068669          000000001000000000005990000000000000000000014640000000014640000000000001800
5421089693000100551  0606571401   0011             000000002000000000081600000000000000000000000000000000000000000000000000000
5421089693000100552  9304051405   0029598          000000002000000000015980000000000000000000000000000000000000000000000000000
5421089693000100551  8052691403   001600263003     000000081000000000070470000000001350000000000000000000035630000000000000000
5421089693000100551  8086961102   001600040007     000000036000000000135360000000000000000000000000000000000000000000000000000
5421089693000100551  8120341102   001600089007     000000024000000000096240000000000000000000000000000000000000000000000000000
5421089693000100551  8170241102   001600089007     000000012000000000048120000000000510000000000000000000000000000000000000000
5421089693000100551  4106381405   001069384        000000020000000000029800000000000000000000000000000000000000000000000000000
5421089693000100551  41063911020  001141978        000000001000000000001350000000000000000000001350000000001350000000000001800
5421089693000100553  6075171405   0090002353       000000001000000000035100000000005450000000000000000000000000000000000000000
5421089693000100553  6104861405   0040002655       000000001000000000023280000000006570000000000000000000000000000000000000000
5421089693000100553  6162651405   0110002655       000000001000000000023280000000004540000000000000000000000000000000000000000
5421089693000100551  0871691405   0010000005510    000000001000000000017300000000000000000000000000000000000000000000000000000
5421089693000100551  0875281405   0010000006518    000000001000000000017500000000000000000000000000000000000000000000000000000
5421089693000100551  0879581405   0010000005501    000000001000000000034600000000000000000000000000000000000000000000000000000
5421089693000100551  3486581102   0012076          000000001000000000079490000000000000000000128200000000128200000000000000000
5421089693000100551  34998911020  0011179          000000001000000000046850000000000000000000078050000000078050000000000001800
5421089693000100553  5875481102   0036             000000001000000000024680000000000000000000050200000000050200000000000000000
5421089693000100553  5887781405   0041607          000000001000000000052900000000000000000000000000000000000000000000000000000
5421089693000100553  5912861405   0051607          000000001000000000052900000000000000000000000000000000000000000000000000000
5421089693000100551  0530671401   0011003          000000012000000000110400000000000000000000000000000000062250000000000000000
5421089693000100551  0549681401   0011003          000000012000000000110400000000000000000000000000000000062250000000000000000
5421089693000100551  0559361401   0011003          000000009000000000082800000000000000000000000000000000046690000000000000000
5421089693000100551  0569251401   0011001          000000012000000000110400000000000000000000000000000000062250000000000000000
5421089693000100551  1872261405   001056059        000000001000000000013200000000000000000000000000000000000000000000000000000
5421089693000100551  1915281405   001092289        000000001000000000012060000000000000000000000000000000000000000000000000000
5421089693000100551  1962631405   001092053        000000001000000000029940000000000000000000000000000000000000000000000000000
5421089693000100551  1973351405   001001274        000000003000000000118260000000000000000000000000000000000000000000000000000
5421089693000100551  2008181405   001092287        000000001000000000012060000000000000000000000000000000000000000000000000000
5421089693000100551  0541321405   01200000000414602000000030000000000029350000000000000000000000000000000000000000000000000000
5421089693000100551  0541331403   02000000012242943000000006000000000017320000000000000000000000000000000000000000000000000000
5421089693000100551  0610201403   03000000012371704000000006000000000008540000000000000000000000000000000000000000000000000000
5421089693000100551  0518771411   02000000012311892000000001000000000047170000000000000000000000000000000000000000000000000000
5421089693000100551  0573271405   00100000068422027000000001000000000062600000000000000000000000000000000000000000000000000000
5421089693000100551013105391403   00100000000135127000000001000000000023300000000000000000000000000000000013140000000000000000
5421089693000100551013109001101   00100000000148445000000002000000000147700000000000000000000000000000000000000000000000000000
5421089693000100553  6060581405   0030000253       000000001000000000020100000000002580000000000000000000000000000000000000000
