10001498950001201838926970038 IRINEIA COMERCIAL LTDA             CONSELHEIRO LAFAIETE          MG00000000002019010120190131331
11R.  MELO VIANA                    00001                      CENTRO         36400000----------------------------003137633716
5000093552564691ISENTO        20190104MG01   0002661202T000000002199000000000000000000000000000000000000000000000000219900000N
5044797975000168536006704110  20190104SP551  1212532101T000000018265400000000000000000000000000000000000000000000001813840000N
5000010998694630ISENTO        20190108MG01   0002671202T000000002249100000000000000000000000000000000000000000000000224910000N
50012976420001671539752360066 20190108MG551  0031111201T000000010995800000000000000000000000000000000000000000000000632530000N
50088817220001040010492530076 20190108MG551  0053591102T000000007164000000000000000000000000000000000000000000000000686400000N
50012976420001671539752360066 20190111MG551  0031261102T000000008613600000000000000000000000000000000000000000000000831060000N
5059128785000125156009245116  20190112SP551  0017202102T000000015716000000000000000000000000000000000000000000000001571600000N
50008229580001680629452500041 20190114MG550  1563191102T000000038458700000000000000000000000000000000000000000000003825940000N
5000010998694630ISENTO        20190115MG01   0002681202T000000002969100000000000000000000000000000000000000000000000296910000N
50012976420001671539752360066 20190117MG551  0031711102T000000005504600000000000000000000000000000000000000000000000523260000N
5000008669506645ISENTO        20190121MG550  0002701202T000000002429000000000000000000000000000000000000000000000000242900000N
5000089107055668ISENTO        20190121MG01   0002711202T000000003999000000000000000000000000000000000000000000000000399900000N
50012976420001671539752360066 20190121MG550  0031711209T000000005519500000000000000000000000000000000000000000000000523260000N
540009355256469101   0002661202000001285841        000000010000000000219900000000000000000000000000000000000000000000000000000
5444797975000168551  1212532101000001275828        000000020000000001813840000000000000000000000000000000000000000000000000000
5444797975000168551  1212532101   992              000000000000000000012700000000012700000000000000000000000000000000000000000
540001099869463001   0002671202000001272568        000000010000000000224910000000000000000000000000000000000000000000000000000
5401297642000167551  0031111201000001234535        000000010000000000632530000000000000000000000000000000000000000000000000000
5401297642000167551  0031111201   991              000000000000000000028450000000028450000000000000000000000000000000000000000
5408881722000104551  0053591102000001144919        000000050000000000239500000000000000000000000000000000000000000000000000000
5408881722000104551  0053591102000002144933        000000070000000000335300000000000000000000000000000000000000000000000000000
5408881722000104551  0053591102000003223515        000000040000000000111600000000000000000000000000000000000000000000000000000
5408881722000104551  0053591102   991              000000000000000000030000000000030000000000000000000000000000000000000000000
5401297642000167551  0031261102000001144957        000000010000000000831060000000000000000000000000000000000000000000000000000
5401297642000167551  0031261102   991              000000000000000000030300000000030300000000000000000000000000000000000000000
5459128785000125551  001720210200000197109         000000100000000000399000000000000000000000000000000000000000000000000000000
5459128785000125551  0017202102000002256650        000000100000000000449000000000000000000000000000000000000000000000000000000
5459128785000125551  0017202102000003203739        000001040000000000572000000000000000000000000000000000000000000000000000000
5459128785000125551  0017202102000004256834        000000040000000000151600000000000000000000000000000000000000000000000000000
5400822958000168550  1563191102000001199957        000000010000000000031700000000000000000000000000000000000000000000000000000
5400822958000168550  1563191102000002199957        000000020000000000063400000000000000000000000000000000000000000000000000000
5400822958000168550  1563191102000003199957        000000020000000000063400000000000000000000000000000000000000000000000000000
5400822958000168550  1563191102000004118866        000000010000000000051730000000000000000000000000000000000000000000000000000
5400822958000168550  1563191102000005102322        000000030000000000053460000000000000000000000000000000000000000000000000000
5400822958000168550  1563191102000006115834        000000010000000000025270000000000000000000000000000000000000000000000000000
5400822958000168550  1563191102000007102339        000000030000000000135120000000000000000000000000000000000000000000000000000
5400822958000168550  1563191102000008184151        000000020000000000076780000000000000000000000000000000000000000000000000000
5400822958000168550  1563191102000009281409        000000010000000000039690000000000000000000000000000000000000000000000000000
5400822958000168550  1563191102000010115896        000000010000000000032350000000000000000000000000000000000000000000000000000
5400822958000168550  1563191102000011111980        000000010000000000033530000000000000000000000000000000000000000000000000000
5400822958000168550  1563191102000012102407        000000020000000000056700000000000000000000000000000000000000000000000000000
5400822958000168550  1563191102000013114998        000000040000000000128320000000000000000000000000000000000000000000000000000
5400822958000168550  1563191102000014106276        000000020000000000041360000000000000000000000000000000000000000000000000000
5400822958000168550  1563191102000015119061        000000010000000000032290000000000000000000000000000000000000000000000000000
5400822958000168550  1563191102000016106313        000000020000000000106380000000000000000000000000000000000000000000000000000
5400822958000168550  1563191102000017106351        000000020000000000137700000000000000000000000000000000000000000000000000000
5400822958000168550  1563191102000018184472        000000020000000000057780000000000000000000000000000000000000000000000000000
5400822958000168550  1563191102000019174763        000000020000000000072260000000000000000000000000000000000000000000000000000
5400822958000168550  1563191102000020143424        000000020000000000085960000000000000000000000000000000000000000000000000000
5400822958000168550  1563191102000021139410        000000010000000000067280000000000000000000000000000000000000000000000000000
5400822958000168550  1563191102000022139441        000000010000000000021010000000000000000000000000000000000000000000000000000
5400822958000168550  1563191102000023128032        000000020000000000053900000000000000000000000000000000000000000000000000000
5400822958000168550  1563191102000024139465        000000020000000000040820000000000000000000000000000000000000000000000000000
5400822958000168550  1563191102000025143585        000000010000000000109080000000000000000000000000000000000000000000000000000
5400822958000168550  1563191102000026215534        000000010000000000033970000000000000000000000000000000000000000000000000000
5400822958000168550  1563191102000027290326        000000010000000000032350000000000000000000000000000000000000000000000000000
5400822958000168550  1563191102000028158503        000000010000000000045850000000000000000000000000000000000000000000000000000
5400822958000168550  1563191102000029290333        000000020000000000069220000000000000000000000000000000000000000000000000000
5400822958000168550  1563191102000030163132        000000010000000000056320000000000000000000000000000000000000000000000000000
5400822958000168550  1563191102000031158565        000000010000000000026950000000000000000000000000000000000000000000000000000
5400822958000168550  1563191102000032151153        000000020000000000068680000000000000000000000000000000000000000000000000000
5400822958000168550  1563191102000033181396        000000010000000000073120000000000000000000000000000000000000000000000000000
5400822958000168550  1563191102000034284066        000000020000000000072040000000000000000000000000000000000000000000000000000
5400822958000168550  1563191102000035151276        000000020000000000081640000000000000000000000000000000000000000000000000000
5400822958000168550  1563191102000036225557        000000010000000000020410000000000000000000000000000000000000000000000000000
5400822958000168550  1563191102000037239042        000000010000000000039740000000000000000000000000000000000000000000000000000
5400822958000168550  1563191102000038209069        000000010000000000103900000000000000000000000000000000000000000000000000000
5400822958000168550  1563191102000039218368        000000010000000000100060000000000000000000000000000000000000000000000000000
5400822958000168550  1563191102000040165075        000000010000000000264650000000000000000000000000000000000000000000000000000
5400822958000168550  1563191102000041147606        000000020000000000041260000000000000000000000000000000000000000000000000000
5400822958000168550  1563191102000042143806        000000050000000000131200000000000000000000000000000000000000000000000000000
5400822958000168550  1563191102000043115438        000000030000000000062700000000000000000000000000000000000000000000000000000
5400822958000168550  156319110200004496874         000000010000000000068360000000000000000000000000000000000000000000000000000
5400822958000168550  1563191102000045103763        000000040000000000092680000000000000000000000000000000000000000000000000000
5400822958000168550  1563191102000046184618        000000010000000000020680000000000000000000000000000000000000000000000000000
5400822958000168550  1563191102000047181846        000000010000000000047630000000000000000000000000000000000000000000000000000
5400822958000168550  1563191102000048189248        000000010000000000019930000000000000000000000000000000000000000000000000000
5400822958000168550  1563191102000049175715        000000010000000000060260000000000000000000000000000000000000000000000000000
5400822958000168550  1563191102000050161640        000000030000000000052500000000000000000000000000000000000000000000000000000
5400822958000168550  1563191102000051164443        000000020000000000118580000000000000000000000000000000000000000000000000000
5400822958000168550  1563191102000052185295        000000010000000000071770000000000000000000000000000000000000000000000000000
5400822958000168550  1563191102000053281546        000000010000000000075060000000000000000000000000000000000000000000000000000
5400822958000168550  1563191102000054151535        000000010000000000155200000000000000000000000000000000000000000000000000000
5400822958000168550  1563191102000055200240        000000020000000000101960000000000000000000000000000000000000000000000000000
5400822958000168550  1563191102   991              000000000000000000019920000000019920000000000000000000000000000000000000000
540001099869463001   0002681202000001286848        000000010000000000296910000000000000000000000000000000000000000000000000000
5401297642000167551  0031711102000001290319        000000010000000000523260000000000000000000000000000000000000000000000000000
5401297642000167551  0031711102   991              000000000000000000027200000000027200000000000000000000000000000000000000000
5400008669506645550  0002701202000001257671        000000010000000000242900000000000000000000000000000000000000000000000000000
540008910705566801   0002711202000001287098        000000010000000000399900000000000000000000000000000000000000000000000000000
5401297642000167550  0031711209000001290319        000000010000000000523260000000000000000000000000000000000000000000000000000
5401297642000167550  0031711209   991              000000000000000000027200000000027200000000000000000000000000000000000000000
60M20190102BE0914101000112145310022D01631101633100136400300000000003008600000000486628162                                     
60A20190102BE091410100011214531N   000000291871                                                                               
60A20190102BE091410100011214531DESC000000008989                                                                               
60D20190102BE091410100011214531185134        00000000020000000000000009980000000000000998018000000000001796                   
60D20190102BE091410100011214531201148        00000000010000000000000002990000000000000299018000000000000538                   
60D20190102BE091410100011214531223409        00000000010000000000000012990000000000001299018000000000002338                   
60D20190102BE091410100011214531229968        00000000010000000000000032990000000000003299018000000000005938                   
60D20190102BE091410100011214531231893        00000000010000000000000003990000000000000399018000000000000718                   
60D20190102BE091410100011214531235341        00000000010000000000000022990000000000002299018000000000004138                   
60D20190102BE091410100011214531257671        00000000010000000000000024290000000000002429018000000000004372                   
60D20190102BE091410100011214531264723        00000000010000000000000019990000000000001999018000000000003598                   
60D20190102BE091410100011214531271691        00000000010000000000000023990000000000002399018000000000004318                   
60D20190102BE091410100011214531273671        00000000010000000000000033000000000000003300018000000000005940                   
60D20190102BE091410100011214531274272        00000000010000000000000023990000000000002399018000000000004318                   
60D20190102BE091410100011214531286992        00000000010000000000000059990000000000005999018000000000010798                   
60D20190102BE091410100011214531288071        00000000010000000000000020691000000000002069118000000000003724                   
60I20190102BE0914101000112145312D016314001271691        000000000100000000000239900000000239901800000000004318                
60I20190102BE0914101000112145312D016314002229968        000000000100000000000329900000000329901800000000005938                
60I20190102BE0914101000112145312D016315001201148        000000000100000000000029900000000029901800000000000538                
60I20190102BE0914101000112145312D016316001264723        000000000100000000000199900000000199901800000000003598                
60I20190102BE0914101000112145312D016317001223409        000000000100000000000129900000000129901800000000002338                
60I20190102BE0914101000112145312D016318001185134        000000000100000000000049900000000049901800000000000898                
60I20190102BE0914101000112145312D016319001273671        000000000100000000000330000000000330001800000000005940                
60I20190102BE0914101000112145312D016320001288071        000000000100000000000206910000000206911800000000003724                
60I20190102BE0914101000112145312D016321001274272        000000000100000000000239900000000239901800000000004318                
60I20190102BE0914101000112145312D016325001286992        000000000100000000000599900000000599901800000000010798                
60I20190102BE0914101000112145312D016328001185134        000000000100000000000049900000000049901800000000000898                
60I20190102BE0914101000112145312D016328002231893        000000000100000000000039900000000039901800000000000718                
60I20190102BE0914101000112145312D016329001257671        000000000100000000000242900000000242901800000000004372                
60I20190102BE0914101000112145312D016330001235341        000000000100000000000229900000000229901800000000004138                
60R01201980965         0000000001000000000000002849000000000000284901800                                                      
60R01201994450         0000000001000000000000002867500000000000286751800                                                      
60R01201996737         0000000001000000000000000499000000000000049901800                                                      
60R01201997109         0000000001000000000000000499700000000000049971800                                                      
60R01201999219         000000000400000000000000060080000000000006008F                                                         
60R012019102278        0000000001000000000000000399000000000000039901800                                                      
60R012019102322        0000000001000000000000000399000000000000039901800                                                      
60R012019102483        0000000001000000000000000799000000000000079901800                                                      
60R012019103800        0000000001000000000000004185000000000000418501800                                                      
60R012019106153        0000000002000000000000001398000000000000139801800                                                      
60R012019106160        0000000003000000000000001047000000000000104701800                                                      
60R012019106320        0000000001000000000000001099000000000000109901800                                                      
60R012019106351        0000000001000000000000001299000000000000129901800                                                      
60R012019106580        0000000001000000000000002399000000000000239901800                                                      
60R012019106603        0000000004000000000000003379800000000000337981800                                                      
60R012019115438        0000000001000000000000000399000000000000039901800                                                      
60R012019115513        0000000001000000000000001199000000000000119901800                                                      
60R012019115636        0000000001000000000000000999000000000000099901800                                                      
60R012019118743        0000000001000000000000000499000000000000049901800                                                      
60R012019118941        0000000001000000000000000899000000000000089901800                                                      
60R012019121439        0000000001000000000000000050000000000000005001800                                                      
60R012019123402        0000000001000000000000000599000000000000059901800                                                      
60R012019123549        000000000100000000000000072160000000000007216F                                                         
60R012019128032        0000000002000000000000000998000000000000099801800                                                      
60R012019128896        0000000006000000000000000300000000000000030001800                                                      
60R012019129398        000000000100000000000000029900000000000002990F                                                         
60R012019130202        0000000001000000000000000599000000000000059901800                                                      
60R012019132848        0000000001000000000000002170000000000000217001800                                                      
60R012019136655        0000000002000000000000000179000000000000017901800                                                      
60R012019139038        0000000002000000000000019600000000000001960001800                                                      
60R012019139403        0000000001000000000000000499000000000000049901800                                                      
60R012019139410        0000000001000000000000001299000000000000129901800                                                      
60R012019139540        0000000001000000000000000499000000000000049901800                                                      
60R012019139687        0000000001000000000000000699000000000000069901800                                                      
60R012019143295        0000000001000000000000000399000000000000039901800                                                      
60R012019143394        0000000001000000000000001199000000000000119901800                                                      
60R012019143523        0000000001000000000000000349000000000000034901800                                                      
60R012019143530        0000000003000000000000002697000000000000269701800                                                      
60R012019143752        0000000001000000000000000899000000000000089901800                                                      
60R012019143806        0000000001000000000000000499000000000000049901800                                                      
60R012019144940        0000000002000000000000001000000000000000100001800                                                      
60R012019144957        0000000001000000000000017050000000000001705001800                                                      
60R012019145886        000000000100000000000000014900000000000001490F                                                         
60R012019147125        0000000002000000000000000698000000000000069801800                                                      
60R012019151139        0000000002000000000000001398000000000000139801800                                                      
60R012019151368        0000000001000000000000000449000000000000044901800                                                      
60R012019153058        0000000005000000000000003821500000000000382151800                                                      
60R012019158466        0000000002000000000000001198000000000000119801800                                                      
60R012019158817        0000000001000000000000000399000000000000039901800                                                      
60R012019159418        0000000001000000000000000499000000000000049901800                                                      
60R012019159456        0000000001000000000000000399000000000000039901800                                                      
60R012019161275        0000000002000000000000000398000000000000039801800                                                      
60R012019163149        0000000001000000000000000599000000000000059901800                                                      
60R012019163170        0000000001000000000000000399000000000000039901800                                                      
60R012019163194        0000000001000000000000000399000000000000039901800                                                      
60R012019163521        0000000001000000000000001249000000000000124901800                                                      
60R012019164139        0000000001000000000000000399000000000000039901800                                                      
60R012019164153        0000000001000000000000001899000000000000189901800                                                      
60R012019164382        0000000001000000000000000813300000000000081331800                                                      
60R012019164665        0000000001000000000000002799000000000000279901800                                                      
60R012019164689        0000000002000000000000002198000000000000219801800                                                      
60R012019164931        0000000001000000000000001199000000000000119901800                                                      
60R012019166195        0000000001000000000000000299000000000000029901800                                                      
60R012019166232        0000000001000000000000000199000000000000019901800                                                      
60R012019170505        0000000001000000000000000682000000000000068201800                                                      
60R012019172561        0000000001000000000000000599000000000000059901800                                                      
60R012019172752        0000000001000000000000003600000000000000360001800                                                      
60R012019173469        0000000001000000000000000399000000000000039901800                                                      
60R012019174763        0000000001000000000000000699000000000000069901800                                                      
60R012019175111        0000000001000000000000000615700000000000061571800                                                      
60R012019175418        0000000001000000000000000425900000000000042591800                                                      
60R012019175494        0000000001000000000000000899000000000000089901800                                                      
60R012019175623        0000000001000000000000001016900000000000101691800                                                      
60R012019175692        0000000002000000000000000998000000000000099801800                                                      
60R012019184458        0000000001000000000000000499000000000000049901800                                                      
60R012019184649        0000000001000000000000001299000000000000129901800                                                      
60R012019185134        0000000002000000000000000998000000000000099801800                                                      
60R012019185189        0000000001000000000000000899000000000000089901800                                                      
60R012019189002        0000000001000000000000000699000000000000069901800                                                      
60R012019189095        0000000001000000000000000899000000000000089901800                                                      
60R012019189477        0000000001000000000000001399000000000000139901800                                                      
60R012019190619        0000000001000000000000000799000000000000079901800                                                      
60R012019190640        0000000001000000000000000699000000000000069901800                                                      
60R012019192699        0000000001000000000000000585700000000000058571800                                                      
60R012019192750        0000000001000000000000000499000000000000049901800                                                      
60R012019193924        0000000001000000000000000499000000000000049901800                                                      
60R012019194112        0000000001000000000000000499000000000000049901800                                                      
60R012019194204        0000000003000000000000002867400000000000286741800                                                      
60R012019197922        0000000001000000000000001199000000000000119901800                                                      
60R012019199957        0000000001000000000000000599000000000000059901800                                                      
60R012019200226        0000000001000000000000003399000000000000339901800                                                      
60R012019200240        0000000001000000000000000999000000000000099901800                                                      
60R012019201148        0000000001000000000000000299000000000000029901800                                                      
60R012019204415        0000000001000000000000002000000000000000200001800                                                      
60R012019205207        0000000001000000000000000399000000000000039901800                                                      
60R012019208963        0000000001000000000000001999000000000000199901800                                                      
60R012019213363        0000000001000000000000000599000000000000059901800                                                      
60R012019213646        0000000001000000000000000499000000000000049901800                                                      
60R012019214674        0000000001000000000000007559100000000000755911800                                                      
60R012019215640        0000000001000000000000000699000000000000069901800                                                      
60R012019217965        0000000001000000000000000499000000000000049901800                                                      
60R012019218610        0000000001000000000000000699000000000000069901800                                                      
60R012019220125        0000000001000000000000000399000000000000039901800                                                      
60R012019220484        0000000001000000000000000499000000000000049901800                                                      
60R012019222235        0000000001000000000000012700000000000001270001800                                                      
60R012019223409        0000000001000000000000001299000000000000129901800                                                      
60R012019225373        0000000001000000000000000799000000000000079901800                                                      
60R012019225557        0000000001000000000000000399000000000000039901800                                                      
60R012019225656        0000000001000000000000001999000000000000199901800                                                      
60R012019225663        0000000001000000000000001016900000000000101691800                                                      
60R012019226813        0000000001000000000000000199000000000000019901800                                                      
60R012019226820        0000000001000000000000000199000000000000019901800                                                      
60R012019228763        0000000001000000000000002232000000000000223201800                                                      
60R012019229203        0000000001000000000000002499000000000000249901800                                                      
60R012019229968        0000000001000000000000003299000000000000329901800                                                      
60R012019230438        0000000001000000000000008241000000000000824101800                                                      
60R012019231732        0000000002000000000000003398000000000000339801800                                                      
60R012019231893        0000000001000000000000000399000000000000039901800                                                      
60R012019232494        0000000002000000000000001760000000000000176001800                                                      
60R012019233507        0000000001000000000000003410000000000000341001800                                                      
60R012019233514        0000000001000000000000002170000000000000217001800                                                      
60R012019233637        0000000001000000000000003000000000000000300001800                                                      
60R012019233774        0000000001000000000000000599000000000000059901800                                                      
60R012019233903        0000000001000000000000000299000000000000029901800                                                      
60R012019234139        0000000001000000000000000219000000000000021901800                                                      
60R012019234580        0000000002000000000000005270000000000000527001800                                                      
60R012019235341        0000000001000000000000002299000000000000229901800                                                      
60R012019237369        0000000001000000000000000499000000000000049901800                                                      
60R012019238434        0000000001000000000000000899000000000000089901800                                                      
60R012019238717        0000000001000000000000000399000000000000039901800                                                      
60R012019239011        0000000001000000000000000549000000000000054901800                                                      
60R012019239127        0000000001000000000000000599000000000000059901800                                                      
60R012019242950        0000000001000000000000000528600000000000052861800                                                      
60R012019243605        0000000001000000000000003149100000000000314911800                                                      
60R012019243926        0000000001000000000000001599000000000000159901800                                                      
60R012019245067        0000000002000000000000001778500000000000177851800                                                      
60R012019246958        0000000001000000000000001199000000000000119901800                                                      
60R012019250191        0000000001000000000000000279000000000000027901800                                                      
60R012019250368        0000000001000000000000001535000000000000153501800                                                      
60R012019250443        0000000001000000000000002650500000000000265051800                                                      
60R012019250467        0000000001000000000000001085000000000000108501800                                                      
60R012019251587        0000000001000000000000003410000000000000341001800                                                      
60R012019251617        0000000002000000000000001248000000000000124801800                                                      
60R012019251846        0000000001000000000000001889100000000000188911800                                                      
60R012019252317        0000000001000000000000000699000000000000069901800                                                      
60R012019252386        0000000001000000000000000499000000000000049901800                                                      
60R012019252737        0000000001000000000000004013000000000000401301800                                                      
60R012019252775        0000000001000000000000001395000000000000139501800                                                      
60R012019252829        0000000001000000000000004045500000000000404551800                                                      
60R012019253321        0000000002000000000000001325000000000000132501800                                                      
60R012019253345        0000000001000000000000000837000000000000083701800                                                      
60R012019253369        0000000001000000000000000831000000000000083101800                                                      
60R012019254717        0000000003000000000000035900000000000003590001800                                                      
60R012019255127        0000000001000000000000000199000000000000019901800                                                      
60R012019255189        0000000001000000000000000399000000000000039901800                                                      
60R012019256322        0000000001000000000000001099000000000000109901800                                                      
60R012019257633        0000000001000000000000000199000000000000019901800                                                      
60R012019257671        0000000001000000000000002429000000000000242901800                                                      
60R012019258302        0000000001000000000000004650000000000000465001800                                                      
60R012019258326        0000000002000000000000007011000000000000701101800                                                      
60R012019258340        0000000002000000000000013330000000000001333001800                                                      
60R012019259347        0000000001000000000000000299000000000000029901800                                                      
60R012019259514        0000000001000000000000001649000000000000164901800                                                      
60R012019259675        0000000001000000000000000699000000000000069901800                                                      
60R012019259705        0000000001000000000000000649000000000000064901800                                                      
60R012019260480        0000000001000000000000000699000000000000069901800                                                      
60R012019263030        0000000001000000000000000099000000000000009901800                                                      
60R012019263351        0000000001000000000000000299000000000000029901800                                                      
60R012019263474        0000000001000000000000000129000000000000012901800                                                      
60R012019263542        0000000001000000000000000199000000000000019901800                                                      
60R012019263566        0000000001000000000000000299000000000000029901800                                                      
60R012019263962        0000000001000000000000002249000000000000224901800                                                      
60R012019264099        0000000001000000000000000927900000000000092791800                                                      
60R012019264150        0000000001000000000000001899000000000000189901800                                                      
60R012019264280        0000000001000000000000000799000000000000079901800                                                      
60R012019264303        0000000002000000000000001198000000000000119801800                                                      
60R012019264563        0000000001000000000000001979000000000000197901800                                                      
60R012019264723        0000000001000000000000001999000000000000199901800                                                      
60R012019265799        0000000001000000000000003239100000000000323911800                                                      
60R012019266680        0000000001000000000000004859000000000000485901800                                                      
60R012019267083        0000000001000000000000001799000000000000179901800                                                      
60R012019268516        0000000001000000000000000499000000000000049901800                                                      
60R012019268738        0000000001000000000000001699000000000000169901800                                                      
60R012019268820        0000000002000000000000000998000000000000099801800                                                      
60R012019269087        0000000001000000000000000149000000000000014901800                                                      
60R012019269124        0000000001000000000000000199000000000000019901800                                                      
60R012019269414        0000000001000000000000000199000000000000019901800                                                      
60R012019269650        0000000001000000000000000499000000000000049901800                                                      
60R012019269933        0000000001000000000000000399000000000000039901800                                                      
60R012019269971        0000000001000000000000000599000000000000059901800                                                      
60R012019270441        0000000011000000000000065900000000000006590001800                                                      
60R012019271349        0000000001000000000000000799000000000000079901800                                                      
60R012019271455        0000000002000000000000000998000000000000099801800                                                      
60R012019271462        0000000001000000000000000699000000000000069901800                                                      
60R012019271585        0000000001000000000000000799000000000000079901800                                                      
60R012019271691        0000000001000000000000002399000000000000239901800                                                      
60R012019271707        0000000001000000000000001499000000000000149901800                                                      
60R012019271790        0000000001000000000000005800000000000000580001800                                                      
60R012019272865        0000000002000000000000005171000000000000517101800                                                      
60R012019272872        0000000003000000000000003720000000000000372001800                                                      
60R012019273671        0000000001000000000000003300000000000000330001800                                                      
60R012019274272        0000000001000000000000002399000000000000239901800                                                      
60R012019274609        0000000001000000000000001979000000000000197901800                                                      
60R012019275446        0000000002000000000000002805000000000000280501800                                                      
60R012019275996        0000000001000000000000000349000000000000034901800                                                      
60R012019276351        0000000001000000000000000399000000000000039901800                                                      
60R012019276450        0000000001000000000000000299000000000000029901800                                                      
60R012019276566        0000000001000000000000000099000000000000009901800                                                      
60R012019276955        0000000001000000000000000299000000000000029901800                                                      
60R012019277006        0000000001000000000000000299000000000000029901800                                                      
60R012019277235        0000000001000000000000000199000000000000019901800                                                      
60R012019277365        0000000001000000000000000199000000000000019901800                                                      
60R012019277372        0000000001000000000000000199000000000000019901800                                                      
60R012019277747        0000000001000000000000000149000000000000014901800                                                      
60R012019277815        0000000001000000000000000199000000000000019901800                                                      
60R012019278027        0000000001000000000000000149000000000000014901800                                                      
60R012019278591        0000000001000000000000011780000000000001178001800                                                      
60R012019278782        0000000001000000000000000099000000000000009901800                                                      
60R012019278829        0000000001000000000000000399000000000000039901800                                                      
60R012019278881        0000000001000000000000000699000000000000069901800                                                      
60R012019278973        0000000001000000000000000399000000000000039901800                                                      
60R012019279086        0000000001000000000000000599000000000000059901800                                                      
60R012019279093        0000000002000000000000000398000000000000039801800                                                      
60R012019279123        0000000001000000000000000299000000000000029901800                                                      
60R012019279222        0000000002000000000000000498000000000000049801800                                                      
60R012019279239        0000000001000000000000000299000000000000029901800                                                      
60R012019279284        0000000001000000000000000499000000000000049901800                                                      
60R012019279307        0000000002000000000000001398000000000000139801800                                                      
60R012019279369        0000000002000000000000001398000000000000139801800                                                      
60R012019279420        0000000001000000000000000599000000000000059901800                                                      
60R012019279475        0000000001000000000000000699000000000000069901800                                                      
60R012019279659        0000000001000000000000000599000000000000059901800                                                      
60R012019280334        0000000001000000000000001499000000000000149901800                                                      
60R012019280570        0000000001000000000000001799000000000000179901800                                                      
60R012019280952        0000000001000000000000006099000000000000609901800                                                      
60R012019281553        0000000001000000000000000999000000000000099901800                                                      
60R012019281607        0000000001000000000000000399000000000000039901800                                                      
60R012019281706        0000000001000000000000000499000000000000049901800                                                      
60R012019282192        0000000001000000000000000299000000000000029901800                                                      
60R012019282291        0000000001000000000000000199000000000000019901800                                                      
60R012019282352        0000000002000000000000000598400000000000059841800                                                      
60R012019282635        0000000001000000000000000911200000000000091121800                                                      
60R012019282680        0000000001000000000000000599000000000000059901800                                                      
60R012019282765        0000000001000000000000001286800000000000128681800                                                      
60R012019283489        0000000001000000000000001099000000000000109901800                                                      
60R012019283588        0000000001000000000000000399000000000000039901800                                                      
60R012019283939        0000000001000000000000002609100000000000260911800                                                      
60R012019283946        0000000001000000000000001999000000000000199901800                                                      
60R012019283977        0000000001000000000000001799100000000000179911800                                                      
60R012019284097        0000000001000000000000000799000000000000079901800                                                      
60R012019284196        0000000001000000000000000999000000000000099901800                                                      
60R012019284646        0000000001000000000000000499000000000000049901800                                                      
60R012019284684        0000000001000000000000000199000000000000019901800                                                      
60R012019284721        0000000001000000000000000299000000000000029901800                                                      
60R012019284745        0000000002000000000000000300000000000000030001800                                                      
60R012019284912        0000000001000000000000003509100000000000350911800                                                      
60R012019285018        0000000001000000000000000999000000000000099901800                                                      
60R012019285032        0000000001000000000000000999000000000000099901800                                                      
60R012019285049        0000000001000000000000000699000000000000069901800                                                      
60R012019285629        0000000001000000000000001799100000000000179911800                                                      
60R012019285643        0000000001000000000000001799000000000000179901800                                                      
60R012019285766        0000000001000000000000003299000000000000329901800                                                      
60R012019285797        0000000001000000000000001619000000000000161901800                                                      
60R012019285803        0000000001000000000000003899000000000000389901800                                                      
60R012019285858        0000000001000000000000002199000000000000219901800                                                      
60R012019286213        0000000001000000000000002299000000000000229901800                                                      
60R012019286312        0000000001000000000000002399000000000000239901800                                                      
60R012019286855        0000000001000000000000002199000000000000219901800                                                      
60R012019286930        0000000001000000000000002339100000000000233911800                                                      
60R012019286992        0000000001000000000000005999000000000000599901800                                                      
60R012019287043        0000000001000000000000005999000000000000599901800                                                      
60R012019287166        0000000001000000000000003999000000000000399901800                                                      
60R012019287227        0000000001000000000000001999000000000000199901800                                                      
60R012019287708        0000000001000000000000002069100000000000206911800                                                      
60R012019287722        0000000001000000000000001979100000000000197911800                                                      
60R012019287951        0000000001000000000000002899000000000000289901800                                                      
60R012019288071        0000000001000000000000002069100000000000206911800                                                      
60R012019288316        0000000001000000000000002299000000000000229901800                                                      
60R012019288385        0000000001000000000000002050000000000000205001800                                                      
60R012019288613        0000000001000000000000001599000000000000159901800                                                      
60R012019288712        0000000001000000000000017500000000000001750001800                                                      
60R012019288781        0000000001000000000000007700000000000000770001800                                                      
60R012019288804        0000000001000000000000003565000000000000356501800                                                      
60R012019289252        0000000001000000000000002199000000000000219901800                                                      
60R012019289290        0000000001000000000000001399000000000000139901800                                                      
60R012019289412        0000000001000000000000000399000000000000039901800                                                      
60R012019289696        0000000001000000000000001099000000000000109901800                                                      
60R012019289702        0000000001000000000000001999000000000000199901800                                                      
60R012019289733        0000000001000000000000000599000000000000059901800                                                      
60R012019290005        0000000001000000000000002799000000000000279901800                                                      
60R012019290111        0000000001000000000000006399000000000000639901800                                                      
60M20190103BE0914101000112145310022D01633201634200136500300000000001099200000000486738082                                     
60A20190103BE091410100011214531N   000000101233                                                                               
60A20190103BE091410100011214531DESC000000008687                                                                               
60D20190103BE091410100011214531102483        00000000010000000000000007990000000000000799018000000000001438                   
60D20190103BE091410100011214531136655        00000000010000000000000000800000000000000080018000000000000144                   
60D20190103BE091410100011214531265799        00000000010000000000000032391000000000003239118000000000005830                   
60D20190103BE091410100011214531279475        00000000010000000000000006990000000000000699018000000000001258                   
60D20190103BE091410100011214531283588        00000000010000000000000003990000000000000399018000000000000718                   
60D20190103BE091410100011214531283939        00000000010000000000000026091000000000002609118000000000004696                   
60D20190103BE091410100011214531283977        00000000010000000000000017991000000000001799118000000000003238                   
60D20190103BE091410100011214531284646        00000000010000000000000004990000000000000499018000000000000898                   
60I20190103BE0914101000112145312D016334001283939        000000000100000000000260910000000260911800000000004696                
60I20190103BE0914101000112145312D016335001283588        000000000100000000000039900000000039901800000000000718                
60I20190103BE0914101000112145312D016336001283977        000000000100000000000179910000000179911800000000003238                
60I20190103BE0914101000112145312D016337001102483        000000000100000000000079900000000079901800000000001438                
60I20190103BE0914101000112145312D016338001279475        000000000100000000000069900000000069901800000000001258                
60I20190103BE0914101000112145312D016339001284646        000000000100000000000049900000000049901800000000000898                
60I20190103BE0914101000112145312D016340001136655        000000000100000000000008000000000008001800000000000144                
60I20190103BE0914101000112145312D016341001265799        000000000100000000000323910000000323911800000000005830                
60M20190104BE0914101000112145310022D01634301634900136600300000000003408900000000487078972                                     
60A20190104BE091410100011214531F   000000002990                                                                               
60A20190104BE091410100011214531N   000000187760                                                                               
60A20190104BE091410100011214531CANC000000150140                                                                               
60D20190104BE091410100011214531128032        00000000010000000000000004990000000000000499018000000000000898                   
60D20190104BE091410100011214531129398        000000000100000000000000029900000000000002990F   0000000000000                   
60D20190104BE091410100011214531139687        00000000010000000000000006990000000000000699018000000000001258                   
60D20190104BE091410100011214531164153        00000000010000000000000018990000000000001899018000000000003418                   
60D20190104BE091410100011214531258302        00000000010000000000000046500000000000004650018000000000008370                   
60D20190104BE091410100011214531258340        00000000010000000000000066650000000000006665018000000000011997                   
60D20190104BE091410100011214531259705        00000000010000000000000006490000000000000649018000000000001168                   
60D20190104BE091410100011214531284745        00000000010000000000000001500000000000000150018000000000000270                   
60D20190104BE091410100011214531288804        00000000010000000000000035650000000000003565018000000000006417                   
60I20190104BE0914101000112145312D016344001259705        000000000100000000000064900000000064901800000000001168                
60I20190104BE0914101000112145312D016344002164153        000000000100000000000189900000000189901800000000003418                
60I20190104BE0914101000112145312D016344003139687        000000000100000000000069900000000069901800000000001258                
60I20190104BE0914101000112145312D016345001284745        000000000100000000000015000000000015001800000000000270                
60I20190104BE0914101000112145312D016347001128032        000000000100000000000049900000000049901800000000000898                
60I20190104BE0914101000112145312D016348001129398        00000000010000000000002990000000002990F   000000000000                
60I20190104BE0914101000112145312D016348002258340        000000000100000000000666500000000666501800000000011997                
60I20190104BE0914101000112145312D016348003258302        000000000100000000000465000000000465001800000000008370                
60I20190104BE0914101000112145312D016348004288804        000000000100000000000356500000000356501800000000006417                
60M20190105BE0914101000112145310022D01635001636100136700300000000003710400000000487450012                                     
60A20190105BE091410100011214531F   000000006008                                                                               
60A20190105BE091410100011214531N   000000359033                                                                               
60A20190105BE091410100011214531DESC000000005999                                                                               
60D20190105BE09141010001121453197109         00000000010000000000000004997000000000000499718000000000000900                   
60D20190105BE09141010001121453199219         000000000400000000000000060080000000000006008F   0000000000000                   
60D20190105BE091410100011214531121439        00000000010000000000000000500000000000000050018000000000000090                   
60D20190105BE091410100011214531132848        00000000010000000000000021700000000000002170018000000000003906                   
60D20190105BE091410100011214531136655        00000000010000000000000000990000000000000099018000000000000178                   
60D20190105BE091410100011214531139038        00000000020000000000000196000000000000019600018000000000035280                   
60D20190105BE091410100011214531163521        00000000010000000000000012490000000000001249018000000000002248                   
60D20190105BE091410100011214531194204        00000000010000000000000012990000000000001299018000000000002338                   
60D20190105BE091410100011214531243605        00000000010000000000000031491000000000003149118000000000005668                   
60D20190105BE091410100011214531263962        00000000010000000000000022490000000000002249018000000000004048                   
60D20190105BE091410100011214531272865        00000000010000000000000029400000000000002940018000000000005292                   
60D20190105BE091410100011214531282352        00000000010000000000000002994000000000000299418000000000000539                   
60D20190105BE091410100011214531288316        00000000010000000000000022990000000000002299018000000000004138                   
60I20190105BE0914101000112145312D016351001288316        000000000100000000000229900000000229901800000000004138                
60I20190105BE0914101000112145312D016352001132848        000000000100000000000217000000000217001800000000003906                
60I20190105BE0914101000112145312D016353001136655        000000000100000000000009900000000009901800000000000178                
60I20190105BE0914101000112145312D016354001272865        000000000100000000000294000000000294001800000000005292                
60I20190105BE0914101000112145312D016355001194204        000000000100000000000129900000000129901800000000002338                
60I20190105BE0914101000112145312D016356001139038        000000000200000000000980000000000980001800000000017640                
60I20190105BE0914101000112145312D01635700199219         00000000040000000000001502000000001502F   000000000000                
60I20190105BE0914101000112145312D01635700297109         000000000100000000000049970000000049971800000000000900                
60I20190105BE0914101000112145312D016357003282352        000000000100000000000029940000000029941800000000000539                
60I20190105BE0914101000112145312D016358001243605        000000000100000000000314910000000314911800000000005668                
60I20190105BE0914101000112145312D016359001163521        000000000100000000000124900000000124901800000000002248                
60I20190105BE0914101000112145312D016359002121439        000000000100000000000005000000000005001800000000000090                
60I20190105BE0914101000112145312D016360001263962        000000000100000000000224900000000224901800000000004048                
60M20190107BE0914101000112145310022D01636201637100136800300000000002679500000000487717962                                     
60A20190107BE091410100011214531N   000000267950                                                                               
60D20190107BE091410100011214531166232        00000000010000000000000001990000000000000199018000000000000358                   
60D20190107BE091410100011214531233774        00000000010000000000000005990000000000000599018000000000001078                   
60D20190107BE091410100011214531256322        00000000010000000000000010990000000000001099018000000000001978                   
60D20190107BE091410100011214531270441        00000000040000000000000215000000000000021500018000000000038700                   
60D20190107BE091410100011214531285032        00000000010000000000000009990000000000000999018000000000001798                   
60D20190107BE091410100011214531286312        00000000010000000000000023990000000000002399018000000000004318                   
60I20190107BE0914101000112145312D016363001285032        000000000100000000000099900000000099901800000000001798                
60I20190107BE0914101000112145312D016364001166232        000000000100000000000019900000000019901800000000000358                
60I20190107BE0914101000112145312D016365001270441        000000000200000000000700000000000700001800000000012600                
60I20190107BE0914101000112145312D016367001256322        000000000100000000000109900000000109901800000000001978                
60I20190107BE0914101000112145312D016368001233774        000000000100000000000059900000000059901800000000001078                
60I20190107BE0914101000112145312D016369001270441        000000000200000000000375000000000375001800000000006750                
60I20190107BE0914101000112145312D016370001286312        000000000100000000000239900000000239901800000000004318                
60M20190108BE0914101000112145310022D01637201638900136900300000000003434000000000488061362                                     
60A20190108BE091410100011214531N   000000336400                                                                               
60A20190108BE091410100011214531DESC000000007000                                                                               
60D20190108BE091410100011214531102278        00000000010000000000000003990000000000000399018000000000000718                   
60D20190108BE091410100011214531143523        00000000010000000000000003490000000000000349018000000000000628                   
60D20190108BE091410100011214531147125        00000000010000000000000003490000000000000349018000000000000628                   
60D20190108BE091410100011214531161275        00000000010000000000000001990000000000000199018000000000000358                   
60D20190108BE091410100011214531194112        00000000010000000000000004990000000000000499018000000000000898                   
60D20190108BE091410100011214531252386        00000000010000000000000004990000000000000499018000000000000898                   
60D20190108BE091410100011214531259514        00000000010000000000000016490000000000001649018000000000002968                   
60D20190108BE091410100011214531270441        00000000020000000000000090000000000000009000018000000000016200                   
60D20190108BE091410100011214531284684        00000000010000000000000001990000000000000199018000000000000358                   
60D20190108BE091410100011214531285049        00000000010000000000000006990000000000000699018000000000001258                   
60D20190108BE091410100011214531286213        00000000010000000000000022990000000000002299018000000000004138                   
60D20190108BE091410100011214531288712        00000000010000000000000175000000000000017500018000000000031500                   
60I20190108BE0914101000112145312D016373001286213        000000000100000000000229900000000229901800000000004138                
60I20190108BE0914101000112145312D016374001259514        000000000100000000000164900000000164901800000000002968                
60I20190108BE0914101000112145312D016376001143523        000000000100000000000034900000000034901800000000000628                
60I20190108BE0914101000112145312D016379001252386        000000000100000000000049900000000049901800000000000898                
60I20190108BE0914101000112145312D016380001161275        000000000100000000000019900000000019901800000000000358                
60I20190108BE0914101000112145312D016381001270441        000000000200000000000450000000000450001800000000008100                
60I20190108BE0914101000112145312D016383001284684        000000000100000000000019900000000019901800000000000358                
60I20190108BE0914101000112145312D016384001194112        000000000100000000000049900000000049901800000000000898                
60I20190108BE0914101000112145312D016384002147125        000000000100000000000034900000000034901800000000000628                
60I20190108BE0914101000112145312D016386001102278        000000000100000000000039900000000039901800000000000718                
60I20190108BE0914101000112145312D016387001285049        000000000100000000000069900000000069901800000000001258                
60I20190108BE0914101000112145312D016388001288712        000000000100000000001750000000001750001800000000031500                
60M20190109BE0914101000112145310022D01639001641400137000300000000001952650000000488256627                                     
60A20190109BE091410100011214531N   000000180265                                                                               
60A20190109BE091410100011214531DESC000000007000                                                                               
60A20190109BE091410100011214531CANC000000008000                                                                               
60D20190109BE091410100011214531106160        00000000010000000000000003490000000000000349018000000000000628                   
60D20190109BE091410100011214531106320        00000000010000000000000010990000000000001099018000000000001978                   
60D20190109BE091410100011214531118743        00000000010000000000000004990000000000000499018000000000000898                   
60D20190109BE091410100011214531123402        00000000010000000000000005990000000000000599018000000000001078                   
60D20190109BE091410100011214531128896        00000000030000000000000001500000000000000150018000000000000270                   
60D20190109BE091410100011214531143295        00000000010000000000000003990000000000000399018000000000000718                   
60D20190109BE091410100011214531144940        00000000020000000000000010000000000000001000018000000000001800                   
60D20190109BE091410100011214531151139        00000000010000000000000006990000000000000699018000000000001258                   
60D20190109BE091410100011214531151368        00000000010000000000000004490000000000000449018000000000000808                   
60D20190109BE091410100011214531153058        00000000010000000000000006975000000000000697518000000000001256                   
60D20190109BE091410100011214531158817        00000000010000000000000003990000000000000399018000000000000718                   
60D20190109BE091410100011214531190619        00000000010000000000000007990000000000000799018000000000001438                   
60D20190109BE091410100011214531231732        00000000020000000000000033980000000000003398018000000000006116                   
60D20190109BE091410100011214531268516        00000000010000000000000004990000000000000499018000000000000898                   
60D20190109BE091410100011214531269971        00000000010000000000000005990000000000000599018000000000001078                   
60D20190109BE091410100011214531276566        00000000010000000000000000990000000000000099018000000000000178                   
60D20190109BE091410100011214531279369        00000000010000000000000006990000000000000699018000000000001258                   
60D20190109BE091410100011214531280334        00000000010000000000000014990000000000001499018000000000002698                   
60D20190109BE091410100011214531282352        00000000010000000000000002990000000000000299018000000000000538                   
60D20190109BE091410100011214531284097        00000000010000000000000007990000000000000799018000000000001438                   
60D20190109BE091410100011214531284196        00000000010000000000000009990000000000000999018000000000001798                   
60D20190109BE091410100011214531289290        00000000010000000000000013990000000000001399018000000000002518                   
60D20190109BE091410100011214531289733        00000000010000000000000005990000000000000599018000000000001078                   
60I20190109BE0914101000112145312D016392001284196        000000000100000000000099900000000099901800000000001798                
60I20190109BE0914101000112145312D016392002158817        000000000100000000000039900000000039901800000000000718                
60I20190109BE0914101000112145312D016392003128896        000000000100000000000005000000000005001800000000000090                
60I20190109BE0914101000112145312D016393001118743        000000000100000000000049900000000049901800000000000898                
60I20190109BE0914101000112145312D016394001282352        000000000100000000000029900000000029901800000000000538                
60I20190109BE0914101000112145312D016395001268516        000000000100000000000049900000000049901800000000000898                
60I20190109BE0914101000112145312D016398001289733        000000000100000000000059900000000059901800000000001078                
60I20190109BE0914101000112145312D016399001276566        000000000100000000000009900000000009901800000000000178                
60I20190109BE0914101000112145312D016399002279369        000000000100000000000069900000000069901800000000001258                
60I20190109BE0914101000112145312D016399003269971        000000000100000000000059900000000059901800000000001078                
60I20190109BE0914101000112145312D016401001280334        000000000100000000000149900000000149901800000000002698                
60I20190109BE0914101000112145312D016403001151139        000000000100000000000069900000000069901800000000001258                
60I20190109BE0914101000112145312D016404001151368        000000000100000000000044900000000044901800000000000808                
60I20190109BE0914101000112145312D016404002106320        000000000100000000000109900000000109901800000000001978                
60I20190109BE0914101000112145312D016404003128896        000000000200000000000005000000000005001800000000000090                
60I20190109BE0914101000112145312D016405001289290        000000000100000000000139900000000139901800000000002518                
60I20190109BE0914101000112145312D016406001190619        000000000100000000000079900000000079901800000000001438                
60I20190109BE0914101000112145312D016407001231732        000000000100000000000169900000000169901800000000003058                
60I20190109BE0914101000112145312D016407002231732        000000000100000000000169900000000169901800000000003058                
60I20190109BE0914101000112145312D016407003143295        000000000100000000000039900000000039901800000000000718                
60I20190109BE0914101000112145312D016409001153058        000000000100000000000069750000000069751800000000001256                
60I20190109BE0914101000112145312D016409002123402        000000000100000000000059900000000059901800000000001078                
60I20190109BE0914101000112145312D016409003106160        000000000100000000000034900000000034901800000000000628                
60I20190109BE0914101000112145312D016412001144940        000000000200000000000050000000000050001800000000000900                
60I20190109BE0914101000112145312D016413001284097        000000000100000000000079900000000079901800000000001438                
60M20190110BE0914101000112145310022D01641501642500137100300000000000898100000000488346437                                     
60A20190110BE091410100011214531N   000000087320                                                                               
60A20190110BE091410100011214531DESC000000002490                                                                               
60D20190110BE091410100011214531106153        00000000010000000000000006990000000000000699018000000000001258                   
60D20190110BE091410100011214531166195        00000000010000000000000002990000000000000299018000000000000538                   
60D20190110BE091410100011214531190640        00000000010000000000000006990000000000000699018000000000001258                   
60D20190110BE091410100011214531200226        00000000010000000000000033990000000000003399018000000000006118                   
60D20190110BE091410100011214531226813        00000000010000000000000001990000000000000199018000000000000358                   
60D20190110BE091410100011214531226820        00000000010000000000000001990000000000000199018000000000000358                   
60D20190110BE091410100011214531251617        00000000010000000000000006900000000000000690018000000000001242                   
60D20190110BE091410100011214531269414        00000000010000000000000001990000000000000199018000000000000358                   
60D20190110BE091410100011214531277006        00000000010000000000000002990000000000000299018000000000000538                   
60D20190110BE091410100011214531288385        00000000010000000000000020500000000000002050018000000000003690                   
60I20190110BE0914101000112145312D016417001190640        000000000100000000000069900000000069901800000000001258                
60I20190110BE0914101000112145312D016418001226820        000000000100000000000019900000000019901800000000000358                
60I20190110BE0914101000112145312D016418002226813        000000000100000000000019900000000019901800000000000358                
60I20190110BE0914101000112145312D016419001166195        000000000100000000000029900000000029901800000000000538                
60I20190110BE0914101000112145312D016420001288385        000000000100000000000205000000000205001800000000003690                
60I20190110BE0914101000112145312D016421001269414        000000000100000000000019900000000019901800000000000358                
60I20190110BE0914101000112145312D016422001251617        000000000100000000000069000000000069001800000000001242                
60I20190110BE0914101000112145312D016422002277006        000000000100000000000029900000000029901800000000000538                
60I20190110BE0914101000112145312D016423001106153        000000000100000000000069900000000069901800000000001258                
60I20190110BE0914101000112145312D016424001200226        000000000100000000000339900000000339901800000000006118                
60M20190111BE0914101000112145310022D01642601644100137200300000000001924200000000488538857                                     
60A20190111BE091410100011214531N   000000162641                                                                               
60A20190111BE091410100011214531DESC000000002199                                                                               
60A20190111BE091410100011214531CANC000000027580                                                                               
60D20190111BE091410100011214531143752        00000000010000000000000008990000000000000899018000000000001618                   
60D20190111BE091410100011214531158466        00000000010000000000000005990000000000000599018000000000001078                   
60D20190111BE091410100011214531161275        00000000010000000000000001990000000000000199018000000000000358                   
60D20190111BE091410100011214531175692        00000000010000000000000004990000000000000499018000000000000898                   
60D20190111BE091410100011214531189002        00000000010000000000000006990000000000000699018000000000001258                   
60D20190111BE091410100011214531194204        00000000010000000000000007990000000000000799018000000000001438                   
60D20190111BE091410100011214531243926        00000000010000000000000015990000000000001599018000000000002878                   
60D20190111BE091410100011214531255127        00000000010000000000000001990000000000000199018000000000000358                   
60D20190111BE091410100011214531268738        00000000010000000000000016990000000000001699018000000000003058                   
60D20190111BE091410100011214531279222        00000000020000000000000004980000000000000498018000000000000896                   
60D20190111BE091410100011214531281607        00000000010000000000000003990000000000000399018000000000000718                   
60D20190111BE091410100011214531282635        00000000010000000000000009112000000000000911218000000000001640                   
60D20190111BE091410100011214531282765        00000000010000000000000012868000000000001286818000000000002316                   
60D20190111BE091410100011214531287166        00000000010000000000000039990000000000003999018000000000007198                   
60D20190111BE091410100011214531287722        00000000010000000000000019791000000000001979118000000000003562                   
60I20190111BE0914101000112145312D016427001279222        000000000100000000000024900000000024901800000000000448                
60I20190111BE0914101000112145312D016427003279222        000000000100000000000024900000000024901800000000000448                
60I20190111BE0914101000112145312D016429001282765        000000000100000000000128680000000128681800000000002316                
60I20190111BE0914101000112145312D016429002282635        000000000100000000000091120000000091121800000000001640                
60I20190111BE0914101000112145312D016430001243926        000000000100000000000159900000000159901800000000002878                
60I20190111BE0914101000112145312D016432001161275        000000000100000000000019900000000019901800000000000358                
60I20190111BE0914101000112145312D016433001158466        000000000100000000000059900000000059901800000000001078                
60I20190111BE0914101000112145312D016434001281607        000000000100000000000039900000000039901800000000000718                
60I20190111BE0914101000112145312D016434002255127        000000000100000000000019900000000019901800000000000358                
60I20190111BE0914101000112145312D016435001175692        000000000100000000000049900000000049901800000000000898                
60I20190111BE0914101000112145312D016435002194204        000000000100000000000079900000000079901800000000001438                
60I20190111BE0914101000112145312D016435003143752        000000000100000000000089900000000089901800000000001618                
60I20190111BE0914101000112145312D016436001189002        000000000100000000000069900000000069901800000000001258                
60I20190111BE0914101000112145312D016437001287166        000000000100000000000399900000000399901800000000007198                
60I20190111BE0914101000112145312D016439001287722        000000000100000000000197910000000197911800000000003562                
60I20190111BE0914101000112145312D016440001268738        000000000100000000000169900000000169901800000000003058                
60M20190112BE0914101000112145310022D01644201645200137300300000000002325700000000488771427                                     
60A20190112BE091410100011214531N   000000228671                                                                               
60A20190112BE091410100011214531DESC000000003899                                                                               
60D20190112BE091410100011214531103800        00000000010000000000000041850000000000004185018000000000007533                   
60D20190112BE091410100011214531233637        00000000010000000000000030000000000000003000018000000000005400                   
60D20190112BE091410100011214531234580        00000000010000000000000027900000000000002790018000000000005022                   
60D20190112BE091410100011214531250467        00000000010000000000000010850000000000001085018000000000001953                   
60D20190112BE091410100011214531280952        00000000010000000000000060990000000000006099018000000000010978                   
60D20190112BE091410100011214531284912        00000000010000000000000035091000000000003509118000000000006316                   
60D20190112BE091410100011214531285858        00000000010000000000000021990000000000002199018000000000003958                   
60I20190112BE0914101000112145312D016443001234580        000000000100000000000279000000000279001800000000005022                
60I20190112BE0914101000112145312D016444001103800        000000000100000000000418500000000418501800000000007533                
60I20190112BE0914101000112145312D016444002250467        000000000100000000000108500000000108501800000000001953                
60I20190112BE0914101000112145312D016445001285858        000000000100000000000219900000000219901800000000003958                
60I20190112BE0914101000112145312D016447001284912        000000000100000000000350910000000350911800000000006316                
60I20190112BE0914101000112145312D016448001233637        000000000100000000000300000000000300001800000000005400                
60I20190112BE0914101000112145312D016451001280952        000000000100000000000609900000000609901800000000010978                
60M20190114BE0914101000112145310022D01645301646200137400300000000001539400000000488925367                                     
60A20190114BE091410100011214531N   000000151641                                                                               
60A20190114BE091410100011214531DESC000000002299                                                                               
60D20190114BE091410100011214531158466        00000000010000000000000005990000000000000599018000000000001078                   
60D20190114BE091410100011214531163194        00000000010000000000000003990000000000000399018000000000000718                   
60D20190114BE091410100011214531239011        00000000010000000000000005490000000000000549018000000000000988                   
60D20190114BE091410100011214531254717        00000000010000000000000107500000000000010750018000000000019350                   
60D20190114BE091410100011214531271455        00000000010000000000000004990000000000000499018000000000000898                   
60D20190114BE091410100011214531282192        00000000010000000000000002990000000000000299018000000000000538                   
60D20190114BE091410100011214531287708        00000000010000000000000020691000000000002069118000000000003724                   
60I20190114BE0914101000112145312D016454001282192        000000000100000000000029900000000029901800000000000538                
60I20190114BE0914101000112145312D016455001287708        000000000100000000000206910000000206911800000000003724                
60I20190114BE0914101000112145312D016456001271455        000000000100000000000049900000000049901800000000000898                
60I20190114BE0914101000112145312D016456002163194        000000000100000000000039900000000039901800000000000718                
60I20190114BE0914101000112145312D016457001158466        000000000100000000000059900000000059901800000000001078                
60I20190114BE0914101000112145312D016460001239011        000000000100000000000054900000000054901800000000000988                
60I20190114BE0914101000112145312D016461001254717        000000000100000000001075000000001075001800000000019350                
60M20190115BE0914101000112145310022D01646301647900137500300000000004212200000000489346587                                     
60A20190115BE091410100011214531N   000000416030                                                                               
60A20190115BE091410100011214531DESC000000002200                                                                               
60A20190115BE091410100011214531CANC000000002990                                                                               
60D20190115BE091410100011214531144957        00000000010000000000000170500000000000017050018000000000030690                   
60D20190115BE091410100011214531205207        00000000010000000000000003990000000000000399018000000000000718                   
60D20190115BE091410100011214531264563        00000000010000000000000019790000000000001979018000000000003562                   
60D20190115BE091410100011214531278591        00000000010000000000000117800000000000011780018000000000021204                   
60D20190115BE091410100011214531279307        00000000010000000000000006990000000000000699018000000000001258                   
60D20190115BE091410100011214531279420        00000000010000000000000005990000000000000599018000000000001078                   
60D20190115BE091410100011214531283489        00000000010000000000000010990000000000001099018000000000001978                   
60D20190115BE091410100011214531287043        00000000010000000000000059990000000000005999018000000000010798                   
60D20190115BE091410100011214531287227        00000000010000000000000019990000000000001999018000000000003598                   
60I20190115BE0914101000112145312D016464001205207        000000000100000000000039900000000039901800000000000718                
60I20190115BE0914101000112145312D016465001287043        000000000100000000000599900000000599901800000000010798                
60I20190115BE0914101000112145312D016466001279420        000000000100000000000059900000000059901800000000001078                
60I20190115BE0914101000112145312D016467001279307        000000000100000000000069900000000069901800000000001258                
60I20190115BE0914101000112145312D016468001264563        000000000100000000000197900000000197901800000000003562                
60I20190115BE0914101000112145312D016469001144957        000000000100000000001705000000001705001800000000030690                
60I20190115BE0914101000112145312D016470001287227        000000000100000000000199900000000199901800000000003598                
60I20190115BE0914101000112145312D016474001278591        000000000100000000001178000000001178001800000000021204                
60I20190115BE0914101000112145312D016477001283489        000000000100000000000109900000000109901800000000001978                
60M20190116BE0914101000112145310022D01648001649600137600300000000002241300000000489570717                                     
60A20190116BE091410100011214531N   000000222031                                                                               
60A20190116BE091410100011214531DESC000000002099                                                                               
60D20190116BE091410100011214531102322        00000000010000000000000003990000000000000399018000000000000718                   
60D20190116BE091410100011214531139410        00000000010000000000000012990000000000001299018000000000002338                   
60D20190116BE091410100011214531163170        00000000010000000000000003990000000000000399018000000000000718                   
60D20190116BE091410100011214531225373        00000000010000000000000007990000000000000799018000000000001438                   
60D20190116BE091410100011214531225557        00000000010000000000000003990000000000000399018000000000000718                   
60D20190116BE091410100011214531228763        00000000010000000000000022320000000000002232018000000000004018                   
60D20190116BE091410100011214531246958        00000000010000000000000011990000000000001199018000000000002158                   
60D20190116BE091410100011214531251846        00000000010000000000000018891000000000001889118000000000003400                   
60D20190116BE091410100011214531269087        00000000010000000000000001490000000000000149018000000000000268                   
60D20190116BE091410100011214531272872        00000000010000000000000012400000000000001240018000000000002232                   
60D20190116BE091410100011214531275446        00000000010000000000000015500000000000001550018000000000002790                   
60D20190116BE091410100011214531284745        00000000010000000000000001500000000000000150018000000000000270                   
60D20190116BE091410100011214531288781        00000000010000000000000077000000000000007700018000000000013860                   
60D20190116BE091410100011214531290005        00000000010000000000000027990000000000002799018000000000005038                   
60I20190116BE0914101000112145312D016481001290005        000000000100000000000279900000000279901800000000005038                
60I20190116BE0914101000112145312D016484001251846        000000000100000000000188910000000188911800000000003400                
60I20190116BE0914101000112145312D016486001246958        000000000100000000000119900000000119901800000000002158                
60I20190116BE0914101000112145312D016488001102322        000000000100000000000039900000000039901800000000000718                
60I20190116BE0914101000112145312D016489001139410        000000000100000000000129900000000129901800000000002338                
60I20190116BE0914101000112145312D016490001275446        000000000100000000000155000000000155001800000000002790                
60I20190116BE0914101000112145312D016491001228763        000000000100000000000223200000000223201800000000004018                
60I20190116BE0914101000112145312D016492001225557        000000000100000000000039900000000039901800000000000718                
60I20190116BE0914101000112145312D016492002163170        000000000100000000000039900000000039901800000000000718                
60I20190116BE0914101000112145312D016493001272872        000000000100000000000124000000000124001800000000002232                
60I20190116BE0914101000112145312D016494001288781        000000000100000000000770000000000770001800000000013860                
60I20190116BE0914101000112145312D016494002225373        000000000100000000000079900000000079901800000000001438                
60I20190116BE0914101000112145312D016495001269087        000000000100000000000014900000000014901800000000000268                
60I20190116BE0914101000112145312D016495002284745        000000000100000000000015000000000015001800000000000270                
60M20190117BE0914101000112145310022D01649701650600137700300000000002624100000000489833127                                     
60A20190117BE091410100011214531N   000000258411                                                                               
60A20190117BE091410100011214531DESC000000003999                                                                               
60D20190117BE091410100011214531164382        00000000010000000000000008133000000000000813318000000000001464                   
60D20190117BE091410100011214531175623        00000000010000000000000010169000000000001016918000000000001830                   
60D20190117BE091410100011214531222235        00000000010000000000000127000000000000012700018000000000022860                   
60D20190117BE091410100011214531225663        00000000010000000000000010169000000000001016918000000000001830                   
60D20190117BE091410100011214531229203        00000000010000000000000024990000000000002499018000000000004498                   
60D20190117BE091410100011214531279369        00000000010000000000000006990000000000000699018000000000001258                   
60D20190117BE091410100011214531279659        00000000010000000000000005990000000000000599018000000000001078                   
60D20190117BE091410100011214531285629        00000000010000000000000017991000000000001799118000000000003238                   
60D20190117BE091410100011214531285643        00000000010000000000000017990000000000001799018000000000003238                   
60D20190117BE091410100011214531287951        00000000010000000000000028990000000000002899018000000000005218                   
60I20190117BE0914101000112145312D016498001287951        000000000100000000000289900000000289901800000000005218                
60I20190117BE0914101000112145312D016499001222235        000000000100000000001270000000001270001800000000022860                
60I20190117BE0914101000112145312D016500001279659        000000000100000000000059900000000059901800000000001078                
60I20190117BE0914101000112145312D016501001285643        000000000100000000000179900000000179901800000000003238                
60I20190117BE0914101000112145312D016502001279369        000000000100000000000069900000000069901800000000001258                
60I20190117BE0914101000112145312D016503001229203        000000000100000000000249900000000249901800000000004498                
60I20190117BE0914101000112145312D016504001285629        000000000100000000000179910000000179911800000000003238                
60I20190117BE0914101000112145312D016505001225663        000000000100000000000101690000000101691800000000001830                
60I20190117BE0914101000112145312D016505002175623        000000000100000000000101690000000101691800000000001830                
60I20190117BE0914101000112145312D016505003164382        000000000100000000000081330000000081331800000000001464                
60M20190118BE0914101000112145310022D01650701651900137800300000000001944600000000490027587                                     
60A20190118BE091410100011214531N   000000189060                                                                               
60A20190118BE091410100011214531DESC000000005400                                                                               
60D20190118BE091410100011214531189477        00000000010000000000000013990000000000001399018000000000002518                   
60D20190118BE091410100011214531266680        00000000010000000000000048590000000000004859018000000000008746                   
60D20190118BE091410100011214531270441        00000000020000000000000120000000000000012000018000000000021600                   
60D20190118BE091410100011214531275996        00000000010000000000000003490000000000000349018000000000000628                   
60D20190118BE091410100011214531279239        00000000010000000000000002990000000000000299018000000000000538                   
60I20190118BE0914101000112145312D016508001270441        000000000200000000000600000000000600001800000000010800                
60I20190118BE0914101000112145312D016511001275996        000000000100000000000034900000000034901800000000000628                
60I20190118BE0914101000112145312D016511002279239        000000000100000000000029900000000029901800000000000538                
60I20190118BE0914101000112145312D016512001189477        000000000100000000000139900000000139901800000000002518                
60I20190118BE0914101000112145312D016513001266680        000000000100000000000485900000000485901800000000008746                
60M20190119BE0914101000112145310022D01652001653100137900300000000003096900000000490337277                                     
60A20190119BE091410100011214531N   000000307091                                                                               
60A20190119BE091410100011214531DESC000000002599                                                                               
60D20190119BE091410100011214531106160        00000000010000000000000003490000000000000349018000000000000628                   
60D20190119BE091410100011214531143530        00000000010000000000000008990000000000000899018000000000001618                   
60D20190119BE091410100011214531233514        00000000010000000000000021700000000000002170018000000000003906                   
60D20190119BE091410100011214531238434        00000000010000000000000008990000000000000899018000000000001618                   
60D20190119BE091410100011214531270441        00000000020000000000000144000000000000014400018000000000025920                   
60D20190119BE091410100011214531275446        00000000010000000000000012550000000000001255018000000000002259                   
60D20190119BE091410100011214531286930        00000000010000000000000023391000000000002339118000000000004210                   
60D20190119BE091410100011214531289702        00000000010000000000000019990000000000001999018000000000003598                   
60D20190119BE091410100011214531290111        00000000010000000000000063990000000000006399018000000000011518                   
60I20190119BE0914101000112145312D016521001238434        000000000100000000000089900000000089901800000000001618                
60I20190119BE0914101000112145312D016522001106160        000000000100000000000034900000000034901800000000000628                
